{
  "_format": "hh-sol-artifact-1",
  "contractName": "CCNCarnival",
  "sourceName": "contracts/CCN.sol",
  "abi": [
    {
      "inputs": [],
      "stateMutability": "nonpayable",
      "type": "constructor"
    },
    {
      "anonymous": false,
      "inputs": [
        {
          "indexed": false,
          "internalType": "uint256",
          "name": "maxStalls",
          "type": "uint256"
        }
      ],
      "name": "MaxStallsUpdated",
      "type": "event"
    },
    {
      "anonymous": false,
      "inputs": [
        {
          "indexed": true,
          "internalType": "uint256",
          "name": "stallId",
          "type": "uint256"
        },
        {
          "indexed": true,
          "internalType": "address",
          "name": "user",
          "type": "address"
        },
        {
          "indexed": false,
          "internalType": "uint256",
          "name": "amount",
          "type": "uint256"
        }
      ],
      "name": "PaymentMade",
      "type": "event"
    },
    {
      "anonymous": false,
      "inputs": [
        {
          "indexed": true,
          "internalType": "uint256",
          "name": "stallId",
          "type": "uint256"
        },
        {
          "indexed": true,
          "internalType": "address",
          "name": "user",
          "type": "address"
        },
        {
          "indexed": false,
          "internalType": "uint256",
          "name": "amount",
          "type": "uint256"
        }
      ],
      "name": "RefundIssued",
      "type": "event"
    },
    {
      "anonymous": false,
      "inputs": [
        {
          "indexed": true,
          "internalType": "uint256",
          "name": "stallId",
          "type": "uint256"
        },
        {
          "indexed": true,
          "internalType": "address",
          "name": "stallOwner",
          "type": "address"
        },
        {
          "indexed": false,
          "internalType": "string",
          "name": "name",
          "type": "string"
        },
        {
          "indexed": false,
          "internalType": "uint8",
          "name": "duration",
          "type": "uint8"
        }
      ],
      "name": "StallRegistered",
      "type": "event"
    },
    {
      "anonymous": false,
      "inputs": [
        {
          "indexed": true,
          "internalType": "uint256",
          "name": "stallId",
          "type": "uint256"
        },
        {
          "indexed": true,
          "internalType": "address",
          "name": "stallOwner",
          "type": "address"
        },
        {
          "indexed": false,
          "internalType": "uint256",
          "name": "amount",
          "type": "uint256"
        }
      ],
      "name": "WithdrawalMade",
      "type": "event"
    },
    {
      "inputs": [
        {
          "internalType": "uint256",
          "name": "k",
          "type": "uint256"
        }
      ],
      "name": "getTopStalls",
      "outputs": [
        {
          "internalType": "uint256[]",
          "name": "ids",
          "type": "uint256[]"
        },
        {
          "internalType": "uint256[]",
          "name": "revenues",
          "type": "uint256[]"
        }
      ],
      "stateMutability": "view",
      "type": "function"
    },
    {
      "inputs": [],
      "name": "maxStalls",
      "outputs": [
        {
          "internalType": "uint256",
          "name": "",
          "type": "uint256"
        }
      ],
      "stateMutability": "view",
      "type": "function"
    },
    {
      "inputs": [],
      "name": "owner",
      "outputs": [
        {
          "internalType": "address",
          "name": "",
          "type": "address"
        }
      ],
      "stateMutability": "view",
      "type": "function"
    },
    {
      "inputs": [
        {
          "internalType": "uint256",
          "name": "_stallId",
          "type": "uint256"
        }
      ],
      "name": "payToStall",
      "outputs": [],
      "stateMutability": "payable",
      "type": "function"
    },
    {
      "inputs": [
        {
          "internalType": "uint256",
          "name": "",
          "type": "uint256"
        },
        {
          "internalType": "address",
          "name": "",
          "type": "address"
        }
      ],
      "name": "payments",
      "outputs": [
        {
          "internalType": "uint256",
          "name": "",
          "type": "uint256"
        }
      ],
      "stateMutability": "view",
      "type": "function"
    },
    {
      "inputs": [
        {
          "internalType": "uint256",
          "name": "_stallId",
          "type": "uint256"
        },
        {
          "internalType": "address payable",
          "name": "_user",
          "type": "address"
        },
        {
          "internalType": "uint256",
          "name": "_amount",
          "type": "uint256"
        }
      ],
      "name": "refundUser",
      "outputs": [],
      "stateMutability": "nonpayable",
      "type": "function"
    },
    {
      "inputs": [
        {
          "internalType": "string",
          "name": "_name",
          "type": "string"
        },
        {
          "internalType": "uint8",
          "name": "_duration",
          "type": "uint8"
        }
      ],
      "name": "registerStall",
      "outputs": [],
      "stateMutability": "nonpayable",
      "type": "function"
    },
    {
      "inputs": [
        {
          "internalType": "uint256",
          "name": "_max",
          "type": "uint256"
        }
      ],
      "name": "setMaxStalls",
      "outputs": [],
      "stateMutability": "nonpayable",
      "type": "function"
    },
    {
      "inputs": [],
      "name": "stallCount",
      "outputs": [
        {
          "internalType": "uint256",
          "name": "",
          "type": "uint256"
        }
      ],
      "stateMutability": "view",
      "type": "function"
    },
    {
      "inputs": [
        {
          "internalType": "uint256",
          "name": "",
          "type": "uint256"
        }
      ],
      "name": "stalls",
      "outputs": [
        {
          "internalType": "address payable",
          "name": "stallOwner",
          "type": "address"
        },
        {
          "internalType": "string",
          "name": "name",
          "type": "string"
        },
        {
          "internalType": "uint8",
          "name": "duration",
          "type": "uint8"
        },
        {
          "internalType": "uint256",
          "name": "totalCollected",
          "type": "uint256"
        },
        {
          "internalType": "uint256",
          "name": "netRevenue",
          "type": "uint256"
        },
        {
          "internalType": "bool",
          "name": "registered",
          "type": "bool"
        },
        {
          "internalType": "bool",
          "name": "withdrawn",
          "type": "bool"
        }
      ],
      "stateMutability": "view",
      "type": "function"
    },
    {
      "inputs": [
        {
          "internalType": "uint256",
          "name": "_stallId",
          "type": "uint256"
        },
        {
          "internalType": "uint256",
          "name": "_currentDay",
          "type": "uint256"
        }
      ],
      "name": "withdraw",
      "outputs": [],
      "stateMutability": "nonpayable",
      "type": "function"
    },
    {
      "stateMutability": "payable",
      "type": "receive"
    }
  ],
  "bytecode": "0x60a06040523480156200001157600080fd5b506200002e67129f8ba0d410b35160c01b620000a860201b60201c565b6200004a67b5c807156ffc126860c01b620000a860201b60201c565b3373ffffffffffffffffffffffffffffffffffffffff1660808173ffffffffffffffffffffffffffffffffffffffff16815250506200009a67fd2c186614709aab60c01b620000a860201b60201c565b6000600381905550620000ab565b50565b6080516129d3620000ce60003960008181610361015261169001526129d36000f3fe6080604052600436106100a05760003560e01c80635f593a61116100645780635f593a61146101ef5780636d0f94081461020b5780638da5cb5b1461024e57806399cb043a14610279578063ee12f47f146102a4578063f79f27b7146102cf576100f4565b806310c427ae146100f957806315d9972d1461012257806343b80d3914610160578063441a3e7014610189578063565834ee146101b2576100f4565b366100f4576100b967d5848655b430066f60c01b6102f8565b6040517f08c379a00000000000000000000000000000000000000000000000000000000081526004016100eb90611b02565b60405180910390fd5b600080fd5b34801561010557600080fd5b50610120600480360381019061011b9190611b6c565b6102fb565b005b34801561012e57600080fd5b5061014960048036038101906101449190611b6c565b610592565b604051610157929190611c57565b60405180910390f35b34801561016c57600080fd5b5061018760048036038101906101829190611e0d565b610abb565b005b34801561019557600080fd5b506101b060048036038101906101ab9190611e69565b610e4d565b005b3480156101be57600080fd5b506101d960048036038101906101d49190611f07565b61127e565b6040516101e69190611f56565b60405180910390f35b61020960048036038101906102049190611b6c565b6112a3565b005b34801561021757600080fd5b50610232600480360381019061022d9190611b6c565b61157d565b604051610245979695949392919061202a565b60405180910390f35b34801561025a57600080fd5b5061026361168e565b60405161027091906120af565b60405180910390f35b34801561028557600080fd5b5061028e6116b2565b60405161029b9190611f56565b60405180910390f35b3480156102b057600080fd5b506102b96116b8565b6040516102c69190611f56565b60405180910390f35b3480156102db57600080fd5b506102f660048036038101906102f191906120f6565b6116be565b005b50565b61030f67157c65c8e5d5b61560c01b6102f8565b610323671e3fe6ccad37bf2360c01b6102f8565b61033767616457b1629e6e9760c01b6102f8565b61034b673d93587d146c5fc160c01b6102f8565b61035f670be71e0c8fe46b5860c01b6102f8565b7f000000000000000000000000000000000000000000000000000000000000000073ffffffffffffffffffffffffffffffffffffffff163373ffffffffffffffffffffffffffffffffffffffff16146103ed576040517f08c379a00000000000000000000000000000000000000000000000000000000081526004016103e490612195565b60405180910390fd5b6104016718f6ac2c709238aa60c01b6102f8565b6104156760f8381e6425d8e060c01b6102f8565b610429676ba9dc8397729ca660c01b6102f8565b61043d6704efc11273ee77e660c01b6102f8565b6104516736dd207e61ef109b60c01b6102f8565b61046567ae0d89d612bc137260c01b6102f8565b6104796770c91802b4fbe50860c01b6102f8565b6000811480156104995750610498676a6748916715f2f160c01b611a9a565b5b806104c2575060025481101580156104c157506104c067dc80e4b0bb8b271f60c01b611a9a565b5b5b610501576040517f08c379a00000000000000000000000000000000000000000000000000000000081526004016104f890612201565b60405180910390fd5b6105156752bd68c28833c57960c01b6102f8565b610529674626a09402a5840660c01b6102f8565b80600381905550610544678af73e6e7adc9a6160c01b6102f8565b610558671d53b6e7da7a7d0160c01b6102f8565b7f19e394dd4c7b7014550bf9a0e87c94fe70279fa7ec655e54dd7a1597743fee78816040516105879190611f56565b60405180910390a150565b6060806105a967ec91eba3c69b8bfd60c01b6102f8565b6105bd6780fa36a9d720870f60c01b6102f8565b6105d16752bfb01719a9fa7660c01b6102f8565b600060025490506105ec67148b70a66929354060c01b6102f8565b61060067801e9ec40cfacfdc60c01b6102f8565b808411156106245761061c671fd5f93c1334201960c01b6102f8565b809350610639565b61063867dbe62e5778b9c6da60c01b6102f8565b5b61064d67e15519618b17680060c01b6102f8565b8367ffffffffffffffff81111561066757610666611ca9565b5b6040519080825280602002602001820160405280156106955781602001602082028036833780820191505090505b5092506106ac67ac65d721e28f4b6060c01b6102f8565b8367ffffffffffffffff8111156106c6576106c5611ca9565b5b6040519080825280602002602001820160405280156106f45781602001602082028036833780820191505090505b50915061070b67a83c5f7d7acb3e2760c01b6102f8565b61071f675ee6517aeebe633b60c01b6102f8565b600060018261072e9190612250565b67ffffffffffffffff81111561074757610746611ca9565b5b6040519080825280602002602001820160405280156107755781602001602082028036833780820191505090505b50905061078c674ef641fd75e560b760c01b6102f8565b6107a067a0a791cd5f99623a60c01b6102f8565b60005b85811015610ab3576107bf67adfa5e484841cbf060c01b6102f8565b6107d3672ed8a0c130b0aca960c01b6102f8565b60006107e9675952e8164fb7b09160c01b6102f8565b6107fd67df3e573c87d5ad3e60c01b6102f8565b60006108136778e2c146a99fc19960c01b6102f8565b61082767912cfd33f56e548c60c01b6102f8565b6000600190505b85811161098d5761084967834c842a02401ebd60c01b6102f8565b61085d67154d087c7c06f52760c01b6102f8565b8481815181106108705761086f612284565b5b60200260200101511561089657610891678c5024fe1ea822ad60c01b6102f8565b61097a565b6108aa6754b41f4110e0e5c160c01b6102f8565b6108be67d8e10280033e7e6260c01b6102f8565b6108d2671bf257db584c435960c01b6102f8565b60008060008381526020019081526020016000206004015490506109006781c851245a15355b60c01b6102f8565b61091467a1b6dbea0707485260c01b6102f8565b8281111561096357610930675c5e3e18cc8294f960c01b6102f8565b61094467d0b430258912e23860c01b6102f8565b80925061095b6751babfa256ca5f3860c01b6102f8565b819350610978565b61097767a826f5e65dc9302a60c01b6102f8565b5b505b8080610985906122b3565b91505061082e565b506109a2677ea84f5b2604e60d60c01b6102f8565b6109b66798978bfdbe8d950960c01b6102f8565b600082036109ed576109d267b10423d9ff3627bb60c01b6102f8565b6109e6678cf91e4a69e6944660c01b6102f8565b5050610ab3565b610a01678cbbd7dceaf2edc060c01b6102f8565b610a1567ef595a5afe4dc88760c01b6102f8565b6001848381518110610a2a57610a29612284565b5b602002602001019015159081151581525050610a5067c1a83531aaeeba9360c01b6102f8565b81878481518110610a6457610a63612284565b5b602002602001018181525050610a8467989899e85770230160c01b6102f8565b80868481518110610a9857610a97612284565b5b602002602001018181525050505080806001019150506107a3565b505050915091565b610acf67b6eb7a045aec6f2a60c01b6102f8565b610ae367bd28b2f59baac4a360c01b6102f8565b610af7677c148c47b8b945de60c01b6102f8565b610b0b67e08becd18452c03060c01b6102f8565b60018160ff1610158015610b23575060038160ff1611155b610b62576040517f08c379a0000000000000000000000000000000000000000000000000000000008152600401610b5990612347565b60405180910390fd5b610b76678818c389ec6d073860c01b6102f8565b610b8a67d17c80aa8ebf8aab60c01b6102f8565b610b9e672816aa34b957c79560c01b6102f8565b610bb2675176c1a5ad0b643e60c01b6102f8565b6000600354148015610bd45750610bd3679c8da330b9fdd13a60c01b611a9a565b5b80610bfe5750600354600254108015610bfd5750610bfc67c69da7dc1cf3541360c01b611a9a565b5b5b610c3d576040517f08c379a0000000000000000000000000000000000000000000000000000000008152600401610c34906123b3565b60405180910390fd5b610c5167744bb4d9deb21bd860c01b6102f8565b610c656781a106c756ecd48560c01b6102f8565b60026000815480929190610c78906122b3565b9190505550610c91676b4000128fbebc9460c01b6102f8565b6040518060e001604052803373ffffffffffffffffffffffffffffffffffffffff1681526020018381526020018260ff168152602001600081526020016000815260200160011515815260200160001515815250600080600254815260200190815260200160002060008201518160000160006101000a81548173ffffffffffffffffffffffffffffffffffffffff021916908373ffffffffffffffffffffffffffffffffffffffff1602179055506020820151816001019081610d5591906125df565b5060408201518160020160006101000a81548160ff021916908360ff160217905550606082015181600301556080820151816004015560a08201518160050160006101000a81548160ff02191690831515021790555060c08201518160050160016101000a81548160ff021916908315150217905550905050610de267cb1e9550e3f4962760c01b6102f8565b610df6679d074db5a9187ff860c01b6102f8565b3373ffffffffffffffffffffffffffffffffffffffff166002547f21b2db1a1ada48172b5b2612d06d7ebce476ca96c837ced65a1e306d75921edd8484604051610e419291906126b1565b60405180910390a35050565b610e6167ced5b850f2bb5fec60c01b6102f8565b610e7567f55f4cdda2beed6160c01b6102f8565b610e8967fd4fc64da5a756aa60c01b6102f8565b60008060008481526020019081526020016000209050610eb3676a705d8e346be24d60c01b6102f8565b610ec76715e565ec8bf3489060c01b6102f8565b610edb678bc2d103b457a01e60c01b6102f8565b8060000160009054906101000a900473ffffffffffffffffffffffffffffffffffffffff1673ffffffffffffffffffffffffffffffffffffffff163373ffffffffffffffffffffffffffffffffffffffff1614610f6d576040517f08c379a0000000000000000000000000000000000000000000000000000000008152600401610f649061272d565b60405180910390fd5b610f8167f975a9e1f20d531560c01b6102f8565b610f956774cfeaa73ba3fac760c01b6102f8565b610fa967a4b76f47ba56545d60c01b6102f8565b610fbd67721f17798eae95f860c01b6102f8565b8060050160019054906101000a900460ff161561100f576040517f08c379a000000000000000000000000000000000000000000000000000000000815260040161100690612799565b60405180910390fd5b611023675b3e96b38a8bf5fb60c01b6102f8565b61103767b3b7ccbf8f0d908760c01b6102f8565b61104b67528c1fb565276f9860c01b6102f8565b61105f6793f2d7983c9db79c60c01b6102f8565b8060020160009054906101000a900460ff1660ff168210156110b6576040517f08c379a00000000000000000000000000000000000000000000000000000000081526004016110ad90612805565b60405180910390fd5b6110ca67d0e83c5340e8a27960c01b6102f8565b6110de6799b2643b48813f0b60c01b6102f8565b60018160050160016101000a81548160ff02191690831515021790555061110f6723108ac995cc9ab460c01b6102f8565b6111236778ef0f3a91736cc860c01b6102f8565b600081600301549050611140675b9c1b0fad0a597960c01b6102f8565b6000826003018190555061115e67a228d0a23955f0b760c01b6102f8565b6111726763a9b4b09e00e82660c01b6102f8565b8160000160009054906101000a900473ffffffffffffffffffffffffffffffffffffffff1673ffffffffffffffffffffffffffffffffffffffff166108fc829081150290604051600060405180830381858888f193505050501580156111dc573d6000803e3d6000fd5b506111f167847d85cf386f6c3d60c01b6102f8565b61120567908b9cc61dbd38d360c01b6102f8565b8160000160009054906101000a900473ffffffffffffffffffffffffffffffffffffffff1673ffffffffffffffffffffffffffffffffffffffff16847fc81be14279d47c3277e33e7f25220796e83497d2b34f16612a9fa70d565ffc35836040516112709190611f56565b60405180910390a350505050565b6001602052816000526040600020602052806000526040600020600091509150505481565b6112b767561e0abbf974b73b60c01b6102f8565b6112cb672cf92e2948e49e1d60c01b6102f8565b6112df67882310c18f57385860c01b6102f8565b6000806000838152602001908152602001600020905061130967986022e288d772e760c01b6102f8565b61131d677bc8983b825d319760c01b6102f8565b611331679c4eb7a83a156d3c60c01b6102f8565b8060050160009054906101000a900460ff16611382576040517f08c379a000000000000000000000000000000000000000000000000000000000815260040161137990612871565b60405180910390fd5b61139667e057c16c415df12260c01b6102f8565b6113aa672818c1d86333c92360c01b6102f8565b6113be6748e1c4b2c86ebbee60c01b6102f8565b6113d2670cbc7a6457a7be6b60c01b6102f8565b60003411611415576040517f08c379a000000000000000000000000000000000000000000000000000000000815260040161140c906128dd565b60405180910390fd5b61142967973d0a063a30166960c01b6102f8565b61143d677aafc003473ea83a60c01b6102f8565b348160030160008282546114519190612250565b9250508190555061146c67e56fda2e855cdd6860c01b6102f8565b348160040160008282546114809190612250565b9250508190555061149b6799445ede9869346560c01b6102f8565b346001600084815260200190815260200160002060003373ffffffffffffffffffffffffffffffffffffffff1673ffffffffffffffffffffffffffffffffffffffff16815260200190815260200160002060008282546114fb9190612250565b9250508190555061151667dd3addffa84409bf60c01b6102f8565b61152a67fc03cf74ce57c57e60c01b6102f8565b3373ffffffffffffffffffffffffffffffffffffffff16827f61ac8e9b735e72d1382cbf7d35f2ff3764dae09d7faf7d90787bf7f9ae76e4c8346040516115719190611f56565b60405180910390a35050565b60006020528060005260406000206000915090508060000160009054906101000a900473ffffffffffffffffffffffffffffffffffffffff16908060010180546115c690612402565b80601f01602080910402602001604051908101604052809291908181526020018280546115f290612402565b801561163f5780601f106116145761010080835404028352916020019161163f565b820191906000526020600020905b81548152906001019060200180831161162257829003601f168201915b5050505050908060020160009054906101000a900460ff16908060030154908060040154908060050160009054906101000a900460ff16908060050160019054906101000a900460ff16905087565b7f000000000000000000000000000000000000000000000000000000000000000081565b60025481565b60035481565b6116d26708406bcac0bf03d360c01b6102f8565b6116e6672ee3d89f95624ef260c01b6102f8565b6116fa672d6560be19b26f2360c01b6102f8565b6000806000858152602001908152602001600020905061172467a1bdc3db03961e2d60c01b6102f8565b61173867996f55336ac302b760c01b6102f8565b61174c67c79a355f3b2249bb60c01b6102f8565b8060000160009054906101000a900473ffffffffffffffffffffffffffffffffffffffff1673ffffffffffffffffffffffffffffffffffffffff163373ffffffffffffffffffffffffffffffffffffffff16146117de576040517f08c379a00000000000000000000000000000000000000000000000000000000081526004016117d59061272d565b60405180910390fd5b6117f267adf4e7e64b97452660c01b6102f8565b61180667243ed873f82ce77760c01b6102f8565b61181a6736e075975ec3d7ce60c01b6102f8565b61182e677f24974b3b71d26560c01b6102f8565b816001600086815260200190815260200160002060008573ffffffffffffffffffffffffffffffffffffffff1673ffffffffffffffffffffffffffffffffffffffff1681526020019081526020016000205410156118c1576040517f08c379a00000000000000000000000000000000000000000000000000000000081526004016118b890612949565b60405180910390fd5b6118d5674067f72a73cbe3a560c01b6102f8565b6118e96770470c6ef867f41a60c01b6102f8565b816001600086815260200190815260200160002060008573ffffffffffffffffffffffffffffffffffffffff1673ffffffffffffffffffffffffffffffffffffffff16815260200190815260200160002060008282546119499190612969565b92505081905550611964673facefd99de59d0b60c01b6102f8565b818160030160008282546119789190612969565b925050819055506119936798a462c2b8a6b77860c01b6102f8565b818160040160008282546119a79190612969565b925050819055506119c267fd3eaffd5b6399e360c01b6102f8565b6119d6674f116981bc0f15d260c01b6102f8565b8273ffffffffffffffffffffffffffffffffffffffff166108fc839081150290604051600060405180830381858888f19350505050158015611a1c573d6000803e3d6000fd5b50611a31674317bf07c7b7d42860c01b6102f8565b611a4567697f34922e5f165460c01b6102f8565b8273ffffffffffffffffffffffffffffffffffffffff16847f7a482fdeb6bc9a1376f597068a214a7a39472bb2eff1b8cad21ba04f49ddca1b84604051611a8c9190611f56565b60405180910390a350505050565b600060019050919050565b600082825260208201905092915050565b7f506c656173652075736520706179546f5374616c6c0000000000000000000000600082015250565b6000611aec601583611aa5565b9150611af782611ab6565b602082019050919050565b60006020820190508181036000830152611b1b81611adf565b9050919050565b6000604051905090565b600080fd5b600080fd5b6000819050919050565b611b4981611b36565b8114611b5457600080fd5b50565b600081359050611b6681611b40565b92915050565b600060208284031215611b8257611b81611b2c565b5b6000611b9084828501611b57565b91505092915050565b600081519050919050565b600082825260208201905092915050565b6000819050602082019050919050565b611bce81611b36565b82525050565b6000611be08383611bc5565b60208301905092915050565b6000602082019050919050565b6000611c0482611b99565b611c0e8185611ba4565b9350611c1983611bb5565b8060005b83811015611c4a578151611c318882611bd4565b9750611c3c83611bec565b925050600181019050611c1d565b5085935050505092915050565b60006040820190508181036000830152611c718185611bf9565b90508181036020830152611c858184611bf9565b90509392505050565b600080fd5b600080fd5b6000601f19601f8301169050919050565b7f4e487b7100000000000000000000000000000000000000000000000000000000600052604160045260246000fd5b611ce182611c98565b810181811067ffffffffffffffff82111715611d0057611cff611ca9565b5b80604052505050565b6000611d13611b22565b9050611d1f8282611cd8565b919050565b600067ffffffffffffffff821115611d3f57611d3e611ca9565b5b611d4882611c98565b9050602081019050919050565b82818337600083830152505050565b6000611d77611d7284611d24565b611d09565b905082815260208101848484011115611d9357611d92611c93565b5b611d9e848285611d55565b509392505050565b600082601f830112611dbb57611dba611c8e565b5b8135611dcb848260208601611d64565b91505092915050565b600060ff82169050919050565b611dea81611dd4565b8114611df557600080fd5b50565b600081359050611e0781611de1565b92915050565b60008060408385031215611e2457611e23611b2c565b5b600083013567ffffffffffffffff811115611e4257611e41611b31565b5b611e4e85828601611da6565b9250506020611e5f85828601611df8565b9150509250929050565b60008060408385031215611e8057611e7f611b2c565b5b6000611e8e85828601611b57565b9250506020611e9f85828601611b57565b9150509250929050565b600073ffffffffffffffffffffffffffffffffffffffff82169050919050565b6000611ed482611ea9565b9050919050565b611ee481611ec9565b8114611eef57600080fd5b50565b600081359050611f0181611edb565b92915050565b60008060408385031215611f1e57611f1d611b2c565b5b6000611f2c85828601611b57565b9250506020611f3d85828601611ef2565b9150509250929050565b611f5081611b36565b82525050565b6000602082019050611f6b6000830184611f47565b92915050565b6000611f7c82611ea9565b9050919050565b611f8c81611f71565b82525050565b600081519050919050565b60005b83811015611fbb578082015181840152602081019050611fa0565b60008484015250505050565b6000611fd282611f92565b611fdc8185611aa5565b9350611fec818560208601611f9d565b611ff581611c98565b840191505092915050565b61200981611dd4565b82525050565b60008115159050919050565b6120248161200f565b82525050565b600060e08201905061203f600083018a611f83565b81810360208301526120518189611fc7565b90506120606040830188612000565b61206d6060830187611f47565b61207a6080830186611f47565b61208760a083018561201b565b61209460c083018461201b565b98975050505050505050565b6120a981611ec9565b82525050565b60006020820190506120c460008301846120a0565b92915050565b6120d381611f71565b81146120de57600080fd5b50565b6000813590506120f0816120ca565b92915050565b60008060006060848603121561210f5761210e611b2c565b5b600061211d86828701611b57565b935050602061212e868287016120e1565b925050604061213f86828701611b57565b9150509250925092565b7f4e6f74206f776e65720000000000000000000000000000000000000000000000600082015250565b600061217f600983611aa5565b915061218a82612149565b602082019050919050565b600060208201905081810360008301526121ae81612172565b9050919050565b7f42656c6f772063757272656e7420636f756e7400000000000000000000000000600082015250565b60006121eb601383611aa5565b91506121f6826121b5565b602082019050919050565b6000602082019050818103600083015261221a816121de565b9050919050565b7f4e487b7100000000000000000000000000000000000000000000000000000000600052601160045260246000fd5b600061225b82611b36565b915061226683611b36565b925082820190508082111561227e5761227d612221565b5b92915050565b7f4e487b7100000000000000000000000000000000000000000000000000000000600052603260045260246000fd5b60006122be82611b36565b91507fffffffffffffffffffffffffffffffffffffffffffffffffffffffffffffffff82036122f0576122ef612221565b5b600182019050919050565b7f496e76616c6964206475726174696f6e00000000000000000000000000000000600082015250565b6000612331601083611aa5565b915061233c826122fb565b602082019050919050565b6000602082019050818103600083015261236081612324565b9050919050565b7f4d6178207374616c6c7320726561636865640000000000000000000000000000600082015250565b600061239d601283611aa5565b91506123a882612367565b602082019050919050565b600060208201905081810360008301526123cc81612390565b9050919050565b7f4e487b7100000000000000000000000000000000000000000000000000000000600052602260045260246000fd5b6000600282049050600182168061241a57607f821691505b60208210810361242d5761242c6123d3565b5b50919050565b60008190508160005260206000209050919050565b60006020601f8301049050919050565b600082821b905092915050565b6000600883026124957fffffffffffffffffffffffffffffffffffffffffffffffffffffffffffffffff82612458565b61249f8683612458565b95508019841693508086168417925050509392505050565b6000819050919050565b60006124dc6124d76124d284611b36565b6124b7565b611b36565b9050919050565b6000819050919050565b6124f6836124c1565b61250a612502826124e3565b848454612465565b825550505050565b600090565b61251f612512565b61252a8184846124ed565b505050565b5b8181101561254e57612543600082612517565b600181019050612530565b5050565b601f8211156125935761256481612433565b61256d84612448565b8101602085101561257c578190505b61259061258885612448565b83018261252f565b50505b505050565b600082821c905092915050565b60006125b660001984600802612598565b1980831691505092915050565b60006125cf83836125a5565b9150826002028217905092915050565b6125e882611f92565b67ffffffffffffffff81111561260157612600611ca9565b5b61260b8254612402565b612616828285612552565b600060209050601f8311600181146126495760008415612637578287015190505b61264185826125c3565b8655506126a9565b601f19841661265786612433565b60005b8281101561267f5784890151825560018201915060208501945060208101905061265a565b8683101561269c5784890151612698601f8916826125a5565b8355505b6001600288020188555050505b505050505050565b600060408201905081810360008301526126cb8185611fc7565b90506126da6020830184612000565b9392505050565b7f4e6f74207374616c6c206f776e65720000000000000000000000000000000000600082015250565b6000612717600f83611aa5565b9150612722826126e1565b602082019050919050565b600060208201905081810360008301526127468161270a565b9050919050565b7f46756e647320616c72656164792077697468647261776e000000000000000000600082015250565b6000612783601783611aa5565b915061278e8261274d565b602082019050919050565b600060208201905081810360008301526127b281612776565b9050919050565b7f5374616c6c207374696c6c206163746976650000000000000000000000000000600082015250565b60006127ef601283611aa5565b91506127fa826127b9565b602082019050919050565b6000602082019050818103600083015261281e816127e2565b9050919050565b7f5374616c6c206e6f742072656769737465726564000000000000000000000000600082015250565b600061285b601483611aa5565b915061286682612825565b602082019050919050565b6000602082019050818103600083015261288a8161284e565b9050919050565b7f4d7573742073656e642045544800000000000000000000000000000000000000600082015250565b60006128c7600d83611aa5565b91506128d282612891565b602082019050919050565b600060208201905081810360008301526128f6816128ba565b9050919050565b7f526566756e642065786365656473207061796d656e7400000000000000000000600082015250565b6000612933601683611aa5565b915061293e826128fd565b602082019050919050565b6000602082019050818103600083015261296281612926565b9050919050565b600061297482611b36565b915061297f83611b36565b925082820390508181111561299757612996612221565b5b9291505056fea2646970667358221220d6062b65b15c2280837bd3d23791139a91fd7b52314d5d5914fdd4771eb792d364736f6c63430008170033",
  "linkReferences": {},
  "deployedLinkReferences": {}
}