{"contracts/CCN.sol":{"CCNCarnival":{"abi":[{"inputs":[],"stateMutability":"nonpayable","type":"constructor"},{"anonymous":false,"inputs":[{"indexed":false,"internalType":"uint256","name":"maxStalls","type":"uint256"}],"name":"MaxStallsUpdated","type":"event"},{"anonymous":false,"inputs":[{"indexed":true,"internalType":"uint256","name":"stallId","type":"uint256"},{"indexed":true,"internalType":"address","name":"user","type":"address"},{"indexed":false,"internalType":"uint256","name":"amount","type":"uint256"}],"name":"PaymentMade","type":"event"},{"anonymous":false,"inputs":[{"indexed":true,"internalType":"uint256","name":"stallId","type":"uint256"},{"indexed":true,"internalType":"address","name":"user","type":"address"},{"indexed":false,"internalType":"uint256","name":"amount","type":"uint256"}],"name":"RefundIssued","type":"event"},{"anonymous":false,"inputs":[{"indexed":true,"internalType":"uint256","name":"stallId","type":"uint256"},{"indexed":true,"internalType":"address","name":"stallOwner","type":"address"},{"indexed":false,"internalType":"string","name":"name","type":"string"},{"indexed":false,"internalType":"uint8","name":"duration","type":"uint8"}],"name":"StallRegistered","type":"event"},{"anonymous":false,"inputs":[{"indexed":true,"internalType":"uint256","name":"stallId","type":"uint256"},{"indexed":true,"internalType":"address","name":"stallOwner","type":"address"},{"indexed":false,"internalType":"uint256","name":"amount","type":"uint256"}],"name":"WithdrawalMade","type":"event"},{"inputs":[{"internalType":"uint256","name":"k","type":"uint256"}],"name":"getTopStalls","outputs":[{"internalType":"uint256[]","name":"ids","type":"uint256[]"},{"internalType":"uint256[]","name":"revenues","type":"uint256[]"}],"stateMutability":"view","type":"function"},{"inputs":[],"name":"maxStalls","outputs":[{"internalType":"uint256","name":"","type":"uint256"}],"stateMutability":"view","type":"function"},{"inputs":[],"name":"owner","outputs":[{"internalType":"address","name":"","type":"address"}],"stateMutability":"view","type":"function"},{"inputs":[{"internalType":"uint256","name":"_stallId","type":"uint256"}],"name":"payToStall","outputs":[],"stateMutability":"payable","type":"function"},{"inputs":[{"internalType":"uint256","name":"","type":"uint256"},{"internalType":"address","name":"","type":"address"}],"name":"payments","outputs":[{"internalType":"uint256","name":"","type":"uint256"}],"stateMutability":"view","type":"function"},{"inputs":[{"internalType":"uint256","name":"_stallId","type":"uint256"},{"internalType":"address payable","name":"_user","type":"address"},{"internalType":"uint256","name":"_amount","type":"uint256"}],"name":"refundUser","outputs":[],"stateMutability":"nonpayable","type":"function"},{"inputs":[{"internalType":"string","name":"_name","type":"string"},{"internalType":"uint8","name":"_duration","type":"uint8"}],"name":"registerStall","outputs":[],"stateMutability":"nonpayable","type":"function"},{"inputs":[{"internalType":"uint256","name":"_max","type":"uint256"}],"name":"setMaxStalls","outputs":[],"stateMutability":"nonpayable","type":"function"},{"inputs":[],"name":"stallCount","outputs":[{"internalType":"uint256","name":"","type":"uint256"}],"stateMutability":"view","type":"function"},{"inputs":[{"internalType":"uint256","name":"","type":"uint256"}],"name":"stalls","outputs":[{"internalType":"address payable","name":"stallOwner","type":"address"},{"internalType":"string","name":"name","type":"string"},{"internalType":"uint8","name":"duration","type":"uint8"},{"internalType":"uint256","name":"totalCollected","type":"uint256"},{"internalType":"uint256","name":"netRevenue","type":"uint256"},{"internalType":"bool","name":"registered","type":"bool"},{"internalType":"bool","name":"withdrawn","type":"bool"}],"stateMutability":"view","type":"function"},{"inputs":[{"internalType":"uint256","name":"_stallId","type":"uint256"},{"internalType":"uint256","name":"_currentDay","type":"uint256"}],"name":"withdraw","outputs":[],"stateMutability":"nonpayable","type":"function"},{"stateMutability":"payable","type":"receive"}],"evm":{"bytecode":{"linkReferences":{},"object":"60a06040523480156200001157600080fd5b506200002e67129f8ba0d410b35160c01b620000a860201b60201c565b6200004a67b5c807156ffc126860c01b620000a860201b60201c565b3373ffffffffffffffffffffffffffffffffffffffff1660808173ffffffffffffffffffffffffffffffffffffffff16815250506200009a67fd2c186614709aab60c01b620000a860201b60201c565b6000600381905550620000ab565b50565b6080516129d3620000ce60003960008181610361015261169001526129d36000f3fe6080604052600436106100a05760003560e01c80635f593a61116100645780635f593a61146101ef5780636d0f94081461020b5780638da5cb5b1461024e57806399cb043a14610279578063ee12f47f146102a4578063f79f27b7146102cf576100f4565b806310c427ae146100f957806315d9972d1461012257806343b80d3914610160578063441a3e7014610189578063565834ee146101b2576100f4565b366100f4576100b967d5848655b430066f60c01b6102f8565b6040517f08c379a00000000000000000000000000000000000000000000000000000000081526004016100eb90611b02565b60405180910390fd5b600080fd5b34801561010557600080fd5b50610120600480360381019061011b9190611b6c565b6102fb565b005b34801561012e57600080fd5b5061014960048036038101906101449190611b6c565b610592565b604051610157929190611c57565b60405180910390f35b34801561016c57600080fd5b5061018760048036038101906101829190611e0d565b610abb565b005b34801561019557600080fd5b506101b060048036038101906101ab9190611e69565b610e4d565b005b3480156101be57600080fd5b506101d960048036038101906101d49190611f07565b61127e565b6040516101e69190611f56565b60405180910390f35b61020960048036038101906102049190611b6c565b6112a3565b005b34801561021757600080fd5b50610232600480360381019061022d9190611b6c565b61157d565b604051610245979695949392919061202a565b60405180910390f35b34801561025a57600080fd5b5061026361168e565b60405161027091906120af565b60405180910390f35b34801561028557600080fd5b5061028e6116b2565b60405161029b9190611f56565b60405180910390f35b3480156102b057600080fd5b506102b96116b8565b6040516102c69190611f56565b60405180910390f35b3480156102db57600080fd5b506102f660048036038101906102f191906120f6565b6116be565b005b50565b61030f67157c65c8e5d5b61560c01b6102f8565b610323671e3fe6ccad37bf2360c01b6102f8565b61033767616457b1629e6e9760c01b6102f8565b61034b673d93587d146c5fc160c01b6102f8565b61035f670be71e0c8fe46b5860c01b6102f8565b7f000000000000000000000000000000000000000000000000000000000000000073ffffffffffffffffffffffffffffffffffffffff163373ffffffffffffffffffffffffffffffffffffffff16146103ed576040517f08c379a00000000000000000000000000000000000000000000000000000000081526004016103e490612195565b60405180910390fd5b6104016718f6ac2c709238aa60c01b6102f8565b6104156760f8381e6425d8e060c01b6102f8565b610429676ba9dc8397729ca660c01b6102f8565b61043d6704efc11273ee77e660c01b6102f8565b6104516736dd207e61ef109b60c01b6102f8565b61046567ae0d89d612bc137260c01b6102f8565b6104796770c91802b4fbe50860c01b6102f8565b6000811480156104995750610498676a6748916715f2f160c01b611a9a565b5b806104c2575060025481101580156104c157506104c067dc80e4b0bb8b271f60c01b611a9a565b5b5b610501576040517f08c379a00000000000000000000000000000000000000000000000000000000081526004016104f890612201565b60405180910390fd5b6105156752bd68c28833c57960c01b6102f8565b610529674626a09402a5840660c01b6102f8565b80600381905550610544678af73e6e7adc9a6160c01b6102f8565b610558671d53b6e7da7a7d0160c01b6102f8565b7f19e394dd4c7b7014550bf9a0e87c94fe70279fa7ec655e54dd7a1597743fee78816040516105879190611f56565b60405180910390a150565b6060806105a967ec91eba3c69b8bfd60c01b6102f8565b6105bd6780fa36a9d720870f60c01b6102f8565b6105d16752bfb01719a9fa7660c01b6102f8565b600060025490506105ec67148b70a66929354060c01b6102f8565b61060067801e9ec40cfacfdc60c01b6102f8565b808411156106245761061c671fd5f93c1334201960c01b6102f8565b809350610639565b61063867dbe62e5778b9c6da60c01b6102f8565b5b61064d67e15519618b17680060c01b6102f8565b8367ffffffffffffffff81111561066757610666611ca9565b5b6040519080825280602002602001820160405280156106955781602001602082028036833780820191505090505b5092506106ac67ac65d721e28f4b6060c01b6102f8565b8367ffffffffffffffff8111156106c6576106c5611ca9565b5b6040519080825280602002602001820160405280156106f45781602001602082028036833780820191505090505b50915061070b67a83c5f7d7acb3e2760c01b6102f8565b61071f675ee6517aeebe633b60c01b6102f8565b600060018261072e9190612250565b67ffffffffffffffff81111561074757610746611ca9565b5b6040519080825280602002602001820160405280156107755781602001602082028036833780820191505090505b50905061078c674ef641fd75e560b760c01b6102f8565b6107a067a0a791cd5f99623a60c01b6102f8565b60005b85811015610ab3576107bf67adfa5e484841cbf060c01b6102f8565b6107d3672ed8a0c130b0aca960c01b6102f8565b60006107e9675952e8164fb7b09160c01b6102f8565b6107fd67df3e573c87d5ad3e60c01b6102f8565b60006108136778e2c146a99fc19960c01b6102f8565b61082767912cfd33f56e548c60c01b6102f8565b6000600190505b85811161098d5761084967834c842a02401ebd60c01b6102f8565b61085d67154d087c7c06f52760c01b6102f8565b8481815181106108705761086f612284565b5b60200260200101511561089657610891678c5024fe1ea822ad60c01b6102f8565b61097a565b6108aa6754b41f4110e0e5c160c01b6102f8565b6108be67d8e10280033e7e6260c01b6102f8565b6108d2671bf257db584c435960c01b6102f8565b60008060008381526020019081526020016000206004015490506109006781c851245a15355b60c01b6102f8565b61091467a1b6dbea0707485260c01b6102f8565b8281111561096357610930675c5e3e18cc8294f960c01b6102f8565b61094467d0b430258912e23860c01b6102f8565b80925061095b6751babfa256ca5f3860c01b6102f8565b819350610978565b61097767a826f5e65dc9302a60c01b6102f8565b5b505b8080610985906122b3565b91505061082e565b506109a2677ea84f5b2604e60d60c01b6102f8565b6109b66798978bfdbe8d950960c01b6102f8565b600082036109ed576109d267b10423d9ff3627bb60c01b6102f8565b6109e6678cf91e4a69e6944660c01b6102f8565b5050610ab3565b610a01678cbbd7dceaf2edc060c01b6102f8565b610a1567ef595a5afe4dc88760c01b6102f8565b6001848381518110610a2a57610a29612284565b5b602002602001019015159081151581525050610a5067c1a83531aaeeba9360c01b6102f8565b81878481518110610a6457610a63612284565b5b602002602001018181525050610a8467989899e85770230160c01b6102f8565b80868481518110610a9857610a97612284565b5b602002602001018181525050505080806001019150506107a3565b505050915091565b610acf67b6eb7a045aec6f2a60c01b6102f8565b610ae367bd28b2f59baac4a360c01b6102f8565b610af7677c148c47b8b945de60c01b6102f8565b610b0b67e08becd18452c03060c01b6102f8565b60018160ff1610158015610b23575060038160ff1611155b610b62576040517f08c379a0000000000000000000000000000000000000000000000000000000008152600401610b5990612347565b60405180910390fd5b610b76678818c389ec6d073860c01b6102f8565b610b8a67d17c80aa8ebf8aab60c01b6102f8565b610b9e672816aa34b957c79560c01b6102f8565b610bb2675176c1a5ad0b643e60c01b6102f8565b6000600354148015610bd45750610bd3679c8da330b9fdd13a60c01b611a9a565b5b80610bfe5750600354600254108015610bfd5750610bfc67c69da7dc1cf3541360c01b611a9a565b5b5b610c3d576040517f08c379a0000000000000000000000000000000000000000000000000000000008152600401610c34906123b3565b60405180910390fd5b610c5167744bb4d9deb21bd860c01b6102f8565b610c656781a106c756ecd48560c01b6102f8565b60026000815480929190610c78906122b3565b9190505550610c91676b4000128fbebc9460c01b6102f8565b6040518060e001604052803373ffffffffffffffffffffffffffffffffffffffff1681526020018381526020018260ff168152602001600081526020016000815260200160011515815260200160001515815250600080600254815260200190815260200160002060008201518160000160006101000a81548173ffffffffffffffffffffffffffffffffffffffff021916908373ffffffffffffffffffffffffffffffffffffffff1602179055506020820151816001019081610d5591906125df565b5060408201518160020160006101000a81548160ff021916908360ff160217905550606082015181600301556080820151816004015560a08201518160050160006101000a81548160ff02191690831515021790555060c08201518160050160016101000a81548160ff021916908315150217905550905050610de267cb1e9550e3f4962760c01b6102f8565b610df6679d074db5a9187ff860c01b6102f8565b3373ffffffffffffffffffffffffffffffffffffffff166002547f21b2db1a1ada48172b5b2612d06d7ebce476ca96c837ced65a1e306d75921edd8484604051610e419291906126b1565b60405180910390a35050565b610e6167ced5b850f2bb5fec60c01b6102f8565b610e7567f55f4cdda2beed6160c01b6102f8565b610e8967fd4fc64da5a756aa60c01b6102f8565b60008060008481526020019081526020016000209050610eb3676a705d8e346be24d60c01b6102f8565b610ec76715e565ec8bf3489060c01b6102f8565b610edb678bc2d103b457a01e60c01b6102f8565b8060000160009054906101000a900473ffffffffffffffffffffffffffffffffffffffff1673ffffffffffffffffffffffffffffffffffffffff163373ffffffffffffffffffffffffffffffffffffffff1614610f6d576040517f08c379a0000000000000000000000000000000000000000000000000000000008152600401610f649061272d565b60405180910390fd5b610f8167f975a9e1f20d531560c01b6102f8565b610f956774cfeaa73ba3fac760c01b6102f8565b610fa967a4b76f47ba56545d60c01b6102f8565b610fbd67721f17798eae95f860c01b6102f8565b8060050160019054906101000a900460ff161561100f576040517f08c379a000000000000000000000000000000000000000000000000000000000815260040161100690612799565b60405180910390fd5b611023675b3e96b38a8bf5fb60c01b6102f8565b61103767b3b7ccbf8f0d908760c01b6102f8565b61104b67528c1fb565276f9860c01b6102f8565b61105f6793f2d7983c9db79c60c01b6102f8565b8060020160009054906101000a900460ff1660ff168210156110b6576040517f08c379a00000000000000000000000000000000000000000000000000000000081526004016110ad90612805565b60405180910390fd5b6110ca67d0e83c5340e8a27960c01b6102f8565b6110de6799b2643b48813f0b60c01b6102f8565b60018160050160016101000a81548160ff02191690831515021790555061110f6723108ac995cc9ab460c01b6102f8565b6111236778ef0f3a91736cc860c01b6102f8565b600081600301549050611140675b9c1b0fad0a597960c01b6102f8565b6000826003018190555061115e67a228d0a23955f0b760c01b6102f8565b6111726763a9b4b09e00e82660c01b6102f8565b8160000160009054906101000a900473ffffffffffffffffffffffffffffffffffffffff1673ffffffffffffffffffffffffffffffffffffffff166108fc829081150290604051600060405180830381858888f193505050501580156111dc573d6000803e3d6000fd5b506111f167847d85cf386f6c3d60c01b6102f8565b61120567908b9cc61dbd38d360c01b6102f8565b8160000160009054906101000a900473ffffffffffffffffffffffffffffffffffffffff1673ffffffffffffffffffffffffffffffffffffffff16847fc81be14279d47c3277e33e7f25220796e83497d2b34f16612a9fa70d565ffc35836040516112709190611f56565b60405180910390a350505050565b6001602052816000526040600020602052806000526040600020600091509150505481565b6112b767561e0abbf974b73b60c01b6102f8565b6112cb672cf92e2948e49e1d60c01b6102f8565b6112df67882310c18f57385860c01b6102f8565b6000806000838152602001908152602001600020905061130967986022e288d772e760c01b6102f8565b61131d677bc8983b825d319760c01b6102f8565b611331679c4eb7a83a156d3c60c01b6102f8565b8060050160009054906101000a900460ff16611382576040517f08c379a000000000000000000000000000000000000000000000000000000000815260040161137990612871565b60405180910390fd5b61139667e057c16c415df12260c01b6102f8565b6113aa672818c1d86333c92360c01b6102f8565b6113be6748e1c4b2c86ebbee60c01b6102f8565b6113d2670cbc7a6457a7be6b60c01b6102f8565b60003411611415576040517f08c379a000000000000000000000000000000000000000000000000000000000815260040161140c906128dd565b60405180910390fd5b61142967973d0a063a30166960c01b6102f8565b61143d677aafc003473ea83a60c01b6102f8565b348160030160008282546114519190612250565b9250508190555061146c67e56fda2e855cdd6860c01b6102f8565b348160040160008282546114809190612250565b9250508190555061149b6799445ede9869346560c01b6102f8565b346001600084815260200190815260200160002060003373ffffffffffffffffffffffffffffffffffffffff1673ffffffffffffffffffffffffffffffffffffffff16815260200190815260200160002060008282546114fb9190612250565b9250508190555061151667dd3addffa84409bf60c01b6102f8565b61152a67fc03cf74ce57c57e60c01b6102f8565b3373ffffffffffffffffffffffffffffffffffffffff16827f61ac8e9b735e72d1382cbf7d35f2ff3764dae09d7faf7d90787bf7f9ae76e4c8346040516115719190611f56565b60405180910390a35050565b60006020528060005260406000206000915090508060000160009054906101000a900473ffffffffffffffffffffffffffffffffffffffff16908060010180546115c690612402565b80601f01602080910402602001604051908101604052809291908181526020018280546115f290612402565b801561163f5780601f106116145761010080835404028352916020019161163f565b820191906000526020600020905b81548152906001019060200180831161162257829003601f168201915b5050505050908060020160009054906101000a900460ff16908060030154908060040154908060050160009054906101000a900460ff16908060050160019054906101000a900460ff16905087565b7f000000000000000000000000000000000000000000000000000000000000000081565b60025481565b60035481565b6116d26708406bcac0bf03d360c01b6102f8565b6116e6672ee3d89f95624ef260c01b6102f8565b6116fa672d6560be19b26f2360c01b6102f8565b6000806000858152602001908152602001600020905061172467a1bdc3db03961e2d60c01b6102f8565b61173867996f55336ac302b760c01b6102f8565b61174c67c79a355f3b2249bb60c01b6102f8565b8060000160009054906101000a900473ffffffffffffffffffffffffffffffffffffffff1673ffffffffffffffffffffffffffffffffffffffff163373ffffffffffffffffffffffffffffffffffffffff16146117de576040517f08c379a00000000000000000000000000000000000000000000000000000000081526004016117d59061272d565b60405180910390fd5b6117f267adf4e7e64b97452660c01b6102f8565b61180667243ed873f82ce77760c01b6102f8565b61181a6736e075975ec3d7ce60c01b6102f8565b61182e677f24974b3b71d26560c01b6102f8565b816001600086815260200190815260200160002060008573ffffffffffffffffffffffffffffffffffffffff1673ffffffffffffffffffffffffffffffffffffffff1681526020019081526020016000205410156118c1576040517f08c379a00000000000000000000000000000000000000000000000000000000081526004016118b890612949565b60405180910390fd5b6118d5674067f72a73cbe3a560c01b6102f8565b6118e96770470c6ef867f41a60c01b6102f8565b816001600086815260200190815260200160002060008573ffffffffffffffffffffffffffffffffffffffff1673ffffffffffffffffffffffffffffffffffffffff16815260200190815260200160002060008282546119499190612969565b92505081905550611964673facefd99de59d0b60c01b6102f8565b818160030160008282546119789190612969565b925050819055506119936798a462c2b8a6b77860c01b6102f8565b818160040160008282546119a79190612969565b925050819055506119c267fd3eaffd5b6399e360c01b6102f8565b6119d6674f116981bc0f15d260c01b6102f8565b8273ffffffffffffffffffffffffffffffffffffffff166108fc839081150290604051600060405180830381858888f19350505050158015611a1c573d6000803e3d6000fd5b50611a31674317bf07c7b7d42860c01b6102f8565b611a4567697f34922e5f165460c01b6102f8565b8273ffffffffffffffffffffffffffffffffffffffff16847f7a482fdeb6bc9a1376f597068a214a7a39472bb2eff1b8cad21ba04f49ddca1b84604051611a8c9190611f56565b60405180910390a350505050565b600060019050919050565b600082825260208201905092915050565b7f506c656173652075736520706179546f5374616c6c0000000000000000000000600082015250565b6000611aec601583611aa5565b9150611af782611ab6565b602082019050919050565b60006020820190508181036000830152611b1b81611adf565b9050919050565b6000604051905090565b600080fd5b600080fd5b6000819050919050565b611b4981611b36565b8114611b5457600080fd5b50565b600081359050611b6681611b40565b92915050565b600060208284031215611b8257611b81611b2c565b5b6000611b9084828501611b57565b91505092915050565b600081519050919050565b600082825260208201905092915050565b6000819050602082019050919050565b611bce81611b36565b82525050565b6000611be08383611bc5565b60208301905092915050565b6000602082019050919050565b6000611c0482611b99565b611c0e8185611ba4565b9350611c1983611bb5565b8060005b83811015611c4a578151611c318882611bd4565b9750611c3c83611bec565b925050600181019050611c1d565b5085935050505092915050565b60006040820190508181036000830152611c718185611bf9565b90508181036020830152611c858184611bf9565b90509392505050565b600080fd5b600080fd5b6000601f19601f8301169050919050565b7f4e487b7100000000000000000000000000000000000000000000000000000000600052604160045260246000fd5b611ce182611c98565b810181811067ffffffffffffffff82111715611d0057611cff611ca9565b5b80604052505050565b6000611d13611b22565b9050611d1f8282611cd8565b919050565b600067ffffffffffffffff821115611d3f57611d3e611ca9565b5b611d4882611c98565b9050602081019050919050565b82818337600083830152505050565b6000611d77611d7284611d24565b611d09565b905082815260208101848484011115611d9357611d92611c93565b5b611d9e848285611d55565b509392505050565b600082601f830112611dbb57611dba611c8e565b5b8135611dcb848260208601611d64565b91505092915050565b600060ff82169050919050565b611dea81611dd4565b8114611df557600080fd5b50565b600081359050611e0781611de1565b92915050565b60008060408385031215611e2457611e23611b2c565b5b600083013567ffffffffffffffff811115611e4257611e41611b31565b5b611e4e85828601611da6565b9250506020611e5f85828601611df8565b9150509250929050565b60008060408385031215611e8057611e7f611b2c565b5b6000611e8e85828601611b57565b9250506020611e9f85828601611b57565b9150509250929050565b600073ffffffffffffffffffffffffffffffffffffffff82169050919050565b6000611ed482611ea9565b9050919050565b611ee481611ec9565b8114611eef57600080fd5b50565b600081359050611f0181611edb565b92915050565b60008060408385031215611f1e57611f1d611b2c565b5b6000611f2c85828601611b57565b9250506020611f3d85828601611ef2565b9150509250929050565b611f5081611b36565b82525050565b6000602082019050611f6b6000830184611f47565b92915050565b6000611f7c82611ea9565b9050919050565b611f8c81611f71565b82525050565b600081519050919050565b60005b83811015611fbb578082015181840152602081019050611fa0565b60008484015250505050565b6000611fd282611f92565b611fdc8185611aa5565b9350611fec818560208601611f9d565b611ff581611c98565b840191505092915050565b61200981611dd4565b82525050565b60008115159050919050565b6120248161200f565b82525050565b600060e08201905061203f600083018a611f83565b81810360208301526120518189611fc7565b90506120606040830188612000565b61206d6060830187611f47565b61207a6080830186611f47565b61208760a083018561201b565b61209460c083018461201b565b98975050505050505050565b6120a981611ec9565b82525050565b60006020820190506120c460008301846120a0565b92915050565b6120d381611f71565b81146120de57600080fd5b50565b6000813590506120f0816120ca565b92915050565b60008060006060848603121561210f5761210e611b2c565b5b600061211d86828701611b57565b935050602061212e868287016120e1565b925050604061213f86828701611b57565b9150509250925092565b7f4e6f74206f776e65720000000000000000000000000000000000000000000000600082015250565b600061217f600983611aa5565b915061218a82612149565b602082019050919050565b600060208201905081810360008301526121ae81612172565b9050919050565b7f42656c6f772063757272656e7420636f756e7400000000000000000000000000600082015250565b60006121eb601383611aa5565b91506121f6826121b5565b602082019050919050565b6000602082019050818103600083015261221a816121de565b9050919050565b7f4e487b7100000000000000000000000000000000000000000000000000000000600052601160045260246000fd5b600061225b82611b36565b915061226683611b36565b925082820190508082111561227e5761227d612221565b5b92915050565b7f4e487b7100000000000000000000000000000000000000000000000000000000600052603260045260246000fd5b60006122be82611b36565b91507fffffffffffffffffffffffffffffffffffffffffffffffffffffffffffffffff82036122f0576122ef612221565b5b600182019050919050565b7f496e76616c6964206475726174696f6e00000000000000000000000000000000600082015250565b6000612331601083611aa5565b915061233c826122fb565b602082019050919050565b6000602082019050818103600083015261236081612324565b9050919050565b7f4d6178207374616c6c7320726561636865640000000000000000000000000000600082015250565b600061239d601283611aa5565b91506123a882612367565b602082019050919050565b600060208201905081810360008301526123cc81612390565b9050919050565b7f4e487b7100000000000000000000000000000000000000000000000000000000600052602260045260246000fd5b6000600282049050600182168061241a57607f821691505b60208210810361242d5761242c6123d3565b5b50919050565b60008190508160005260206000209050919050565b60006020601f8301049050919050565b600082821b905092915050565b6000600883026124957fffffffffffffffffffffffffffffffffffffffffffffffffffffffffffffffff82612458565b61249f8683612458565b95508019841693508086168417925050509392505050565b6000819050919050565b60006124dc6124d76124d284611b36565b6124b7565b611b36565b9050919050565b6000819050919050565b6124f6836124c1565b61250a612502826124e3565b848454612465565b825550505050565b600090565b61251f612512565b61252a8184846124ed565b505050565b5b8181101561254e57612543600082612517565b600181019050612530565b5050565b601f8211156125935761256481612433565b61256d84612448565b8101602085101561257c578190505b61259061258885612448565b83018261252f565b50505b505050565b600082821c905092915050565b60006125b660001984600802612598565b1980831691505092915050565b60006125cf83836125a5565b9150826002028217905092915050565b6125e882611f92565b67ffffffffffffffff81111561260157612600611ca9565b5b61260b8254612402565b612616828285612552565b600060209050601f8311600181146126495760008415612637578287015190505b61264185826125c3565b8655506126a9565b601f19841661265786612433565b60005b8281101561267f5784890151825560018201915060208501945060208101905061265a565b8683101561269c5784890151612698601f8916826125a5565b8355505b6001600288020188555050505b505050505050565b600060408201905081810360008301526126cb8185611fc7565b90506126da6020830184612000565b9392505050565b7f4e6f74207374616c6c206f776e65720000000000000000000000000000000000600082015250565b6000612717600f83611aa5565b9150612722826126e1565b602082019050919050565b600060208201905081810360008301526127468161270a565b9050919050565b7f46756e647320616c72656164792077697468647261776e000000000000000000600082015250565b6000612783601783611aa5565b915061278e8261274d565b602082019050919050565b600060208201905081810360008301526127b281612776565b9050919050565b7f5374616c6c207374696c6c206163746976650000000000000000000000000000600082015250565b60006127ef601283611aa5565b91506127fa826127b9565b602082019050919050565b6000602082019050818103600083015261281e816127e2565b9050919050565b7f5374616c6c206e6f742072656769737465726564000000000000000000000000600082015250565b600061285b601483611aa5565b915061286682612825565b602082019050919050565b6000602082019050818103600083015261288a8161284e565b9050919050565b7f4d7573742073656e642045544800000000000000000000000000000000000000600082015250565b60006128c7600d83611aa5565b91506128d282612891565b602082019050919050565b600060208201905081810360008301526128f6816128ba565b9050919050565b7f526566756e642065786365656473207061796d656e7400000000000000000000600082015250565b6000612933601683611aa5565b915061293e826128fd565b602082019050919050565b6000602082019050818103600083015261296281612926565b9050919050565b600061297482611b36565b915061297f83611b36565b925082820390508181111561299757612996612221565b5b9291505056fea2646970667358221220d6062b65b15c2280837bd3d23791139a91fd7b52314d5d5914fdd4771eb792d364736f6c63430008170033","opcodes":"PUSH1 0xA0 PUSH1 0x40 MSTORE CALLVALUE DUP1 ISZERO PUSH3 0x11 JUMPI PUSH1 0x0 DUP1 REVERT JUMPDEST POP PUSH3 0x2E PUSH8 0x129F8BA0D410B351 PUSH1 0xC0 SHL PUSH3 0xA8 PUSH1 0x20 SHL PUSH1 0x20 SHR JUMP JUMPDEST PUSH3 0x4A PUSH8 0xB5C807156FFC1268 PUSH1 0xC0 SHL PUSH3 0xA8 PUSH1 0x20 SHL PUSH1 0x20 SHR JUMP JUMPDEST CALLER PUSH20 0xFFFFFFFFFFFFFFFFFFFFFFFFFFFFFFFFFFFFFFFF AND PUSH1 0x80 DUP2 PUSH20 0xFFFFFFFFFFFFFFFFFFFFFFFFFFFFFFFFFFFFFFFF AND DUP2 MSTORE POP POP PUSH3 0x9A PUSH8 0xFD2C186614709AAB PUSH1 0xC0 SHL PUSH3 0xA8 PUSH1 0x20 SHL PUSH1 0x20 SHR JUMP JUMPDEST PUSH1 0x0 PUSH1 0x3 DUP2 SWAP1 SSTORE POP PUSH3 0xAB JUMP JUMPDEST POP JUMP JUMPDEST PUSH1 0x80 MLOAD PUSH2 0x29D3 PUSH3 0xCE PUSH1 0x0 CODECOPY PUSH1 0x0 DUP2 DUP2 PUSH2 0x361 ADD MSTORE PUSH2 0x1690 ADD MSTORE PUSH2 0x29D3 PUSH1 0x0 RETURN INVALID PUSH1 0x80 PUSH1 0x40 MSTORE PUSH1 0x4 CALLDATASIZE LT PUSH2 0xA0 JUMPI PUSH1 0x0 CALLDATALOAD PUSH1 0xE0 SHR DUP1 PUSH4 0x5F593A61 GT PUSH2 0x64 JUMPI DUP1 PUSH4 0x5F593A61 EQ PUSH2 0x1EF JUMPI DUP1 PUSH4 0x6D0F9408 EQ PUSH2 0x20B JUMPI DUP1 PUSH4 0x8DA5CB5B EQ PUSH2 0x24E JUMPI DUP1 PUSH4 0x99CB043A EQ PUSH2 0x279 JUMPI DUP1 PUSH4 0xEE12F47F EQ PUSH2 0x2A4 JUMPI DUP1 PUSH4 0xF79F27B7 EQ PUSH2 0x2CF JUMPI PUSH2 0xF4 JUMP JUMPDEST DUP1 PUSH4 0x10C427AE EQ PUSH2 0xF9 JUMPI DUP1 PUSH4 0x15D9972D EQ PUSH2 0x122 JUMPI DUP1 PUSH4 0x43B80D39 EQ PUSH2 0x160 JUMPI DUP1 PUSH4 0x441A3E70 EQ PUSH2 0x189 JUMPI DUP1 PUSH4 0x565834EE EQ PUSH2 0x1B2 JUMPI PUSH2 0xF4 JUMP JUMPDEST CALLDATASIZE PUSH2 0xF4 JUMPI PUSH2 0xB9 PUSH8 0xD5848655B430066F PUSH1 0xC0 SHL PUSH2 0x2F8 JUMP JUMPDEST PUSH1 0x40 MLOAD PUSH32 0x8C379A000000000000000000000000000000000000000000000000000000000 DUP2 MSTORE PUSH1 0x4 ADD PUSH2 0xEB SWAP1 PUSH2 0x1B02 JUMP JUMPDEST PUSH1 0x40 MLOAD DUP1 SWAP2 SUB SWAP1 REVERT JUMPDEST PUSH1 0x0 DUP1 REVERT JUMPDEST CALLVALUE DUP1 ISZERO PUSH2 0x105 JUMPI PUSH1 0x0 DUP1 REVERT JUMPDEST POP PUSH2 0x120 PUSH1 0x4 DUP1 CALLDATASIZE SUB DUP2 ADD SWAP1 PUSH2 0x11B SWAP2 SWAP1 PUSH2 0x1B6C JUMP JUMPDEST PUSH2 0x2FB JUMP JUMPDEST STOP JUMPDEST CALLVALUE DUP1 ISZERO PUSH2 0x12E JUMPI PUSH1 0x0 DUP1 REVERT JUMPDEST POP PUSH2 0x149 PUSH1 0x4 DUP1 CALLDATASIZE SUB DUP2 ADD SWAP1 PUSH2 0x144 SWAP2 SWAP1 PUSH2 0x1B6C JUMP JUMPDEST PUSH2 0x592 JUMP JUMPDEST PUSH1 0x40 MLOAD PUSH2 0x157 SWAP3 SWAP2 SWAP1 PUSH2 0x1C57 JUMP JUMPDEST PUSH1 0x40 MLOAD DUP1 SWAP2 SUB SWAP1 RETURN JUMPDEST CALLVALUE DUP1 ISZERO PUSH2 0x16C JUMPI PUSH1 0x0 DUP1 REVERT JUMPDEST POP PUSH2 0x187 PUSH1 0x4 DUP1 CALLDATASIZE SUB DUP2 ADD SWAP1 PUSH2 0x182 SWAP2 SWAP1 PUSH2 0x1E0D JUMP JUMPDEST PUSH2 0xABB JUMP JUMPDEST STOP JUMPDEST CALLVALUE DUP1 ISZERO PUSH2 0x195 JUMPI PUSH1 0x0 DUP1 REVERT JUMPDEST POP PUSH2 0x1B0 PUSH1 0x4 DUP1 CALLDATASIZE SUB DUP2 ADD SWAP1 PUSH2 0x1AB SWAP2 SWAP1 PUSH2 0x1E69 JUMP JUMPDEST PUSH2 0xE4D JUMP JUMPDEST STOP JUMPDEST CALLVALUE DUP1 ISZERO PUSH2 0x1BE JUMPI PUSH1 0x0 DUP1 REVERT JUMPDEST POP PUSH2 0x1D9 PUSH1 0x4 DUP1 CALLDATASIZE SUB DUP2 ADD SWAP1 PUSH2 0x1D4 SWAP2 SWAP1 PUSH2 0x1F07 JUMP JUMPDEST PUSH2 0x127E JUMP JUMPDEST PUSH1 0x40 MLOAD PUSH2 0x1E6 SWAP2 SWAP1 PUSH2 0x1F56 JUMP JUMPDEST PUSH1 0x40 MLOAD DUP1 SWAP2 SUB SWAP1 RETURN JUMPDEST PUSH2 0x209 PUSH1 0x4 DUP1 CALLDATASIZE SUB DUP2 ADD SWAP1 PUSH2 0x204 SWAP2 SWAP1 PUSH2 0x1B6C JUMP JUMPDEST PUSH2 0x12A3 JUMP JUMPDEST STOP JUMPDEST CALLVALUE DUP1 ISZERO PUSH2 0x217 JUMPI PUSH1 0x0 DUP1 REVERT JUMPDEST POP PUSH2 0x232 PUSH1 0x4 DUP1 CALLDATASIZE SUB DUP2 ADD SWAP1 PUSH2 0x22D SWAP2 SWAP1 PUSH2 0x1B6C JUMP JUMPDEST PUSH2 0x157D JUMP JUMPDEST PUSH1 0x40 MLOAD PUSH2 0x245 SWAP8 SWAP7 SWAP6 SWAP5 SWAP4 SWAP3 SWAP2 SWAP1 PUSH2 0x202A JUMP JUMPDEST PUSH1 0x40 MLOAD DUP1 SWAP2 SUB SWAP1 RETURN JUMPDEST CALLVALUE DUP1 ISZERO PUSH2 0x25A JUMPI PUSH1 0x0 DUP1 REVERT JUMPDEST POP PUSH2 0x263 PUSH2 0x168E JUMP JUMPDEST PUSH1 0x40 MLOAD PUSH2 0x270 SWAP2 SWAP1 PUSH2 0x20AF JUMP JUMPDEST PUSH1 0x40 MLOAD DUP1 SWAP2 SUB SWAP1 RETURN JUMPDEST CALLVALUE DUP1 ISZERO PUSH2 0x285 JUMPI PUSH1 0x0 DUP1 REVERT JUMPDEST POP PUSH2 0x28E PUSH2 0x16B2 JUMP JUMPDEST PUSH1 0x40 MLOAD PUSH2 0x29B SWAP2 SWAP1 PUSH2 0x1F56 JUMP JUMPDEST PUSH1 0x40 MLOAD DUP1 SWAP2 SUB SWAP1 RETURN JUMPDEST CALLVALUE DUP1 ISZERO PUSH2 0x2B0 JUMPI PUSH1 0x0 DUP1 REVERT JUMPDEST POP PUSH2 0x2B9 PUSH2 0x16B8 JUMP JUMPDEST PUSH1 0x40 MLOAD PUSH2 0x2C6 SWAP2 SWAP1 PUSH2 0x1F56 JUMP JUMPDEST PUSH1 0x40 MLOAD DUP1 SWAP2 SUB SWAP1 RETURN JUMPDEST CALLVALUE DUP1 ISZERO PUSH2 0x2DB JUMPI PUSH1 0x0 DUP1 REVERT JUMPDEST POP PUSH2 0x2F6 PUSH1 0x4 DUP1 CALLDATASIZE SUB DUP2 ADD SWAP1 PUSH2 0x2F1 SWAP2 SWAP1 PUSH2 0x20F6 JUMP JUMPDEST PUSH2 0x16BE JUMP JUMPDEST STOP JUMPDEST POP JUMP JUMPDEST PUSH2 0x30F PUSH8 0x157C65C8E5D5B615 PUSH1 0xC0 SHL PUSH2 0x2F8 JUMP JUMPDEST PUSH2 0x323 PUSH8 0x1E3FE6CCAD37BF23 PUSH1 0xC0 SHL PUSH2 0x2F8 JUMP JUMPDEST PUSH2 0x337 PUSH8 0x616457B1629E6E97 PUSH1 0xC0 SHL PUSH2 0x2F8 JUMP JUMPDEST PUSH2 0x34B PUSH8 0x3D93587D146C5FC1 PUSH1 0xC0 SHL PUSH2 0x2F8 JUMP JUMPDEST PUSH2 0x35F PUSH8 0xBE71E0C8FE46B58 PUSH1 0xC0 SHL PUSH2 0x2F8 JUMP JUMPDEST PUSH32 0x0 PUSH20 0xFFFFFFFFFFFFFFFFFFFFFFFFFFFFFFFFFFFFFFFF AND CALLER PUSH20 0xFFFFFFFFFFFFFFFFFFFFFFFFFFFFFFFFFFFFFFFF AND EQ PUSH2 0x3ED JUMPI PUSH1 0x40 MLOAD PUSH32 0x8C379A000000000000000000000000000000000000000000000000000000000 DUP2 MSTORE PUSH1 0x4 ADD PUSH2 0x3E4 SWAP1 PUSH2 0x2195 JUMP JUMPDEST PUSH1 0x40 MLOAD DUP1 SWAP2 SUB SWAP1 REVERT JUMPDEST PUSH2 0x401 PUSH8 0x18F6AC2C709238AA PUSH1 0xC0 SHL PUSH2 0x2F8 JUMP JUMPDEST PUSH2 0x415 PUSH8 0x60F8381E6425D8E0 PUSH1 0xC0 SHL PUSH2 0x2F8 JUMP JUMPDEST PUSH2 0x429 PUSH8 0x6BA9DC8397729CA6 PUSH1 0xC0 SHL PUSH2 0x2F8 JUMP JUMPDEST PUSH2 0x43D PUSH8 0x4EFC11273EE77E6 PUSH1 0xC0 SHL PUSH2 0x2F8 JUMP JUMPDEST PUSH2 0x451 PUSH8 0x36DD207E61EF109B PUSH1 0xC0 SHL PUSH2 0x2F8 JUMP JUMPDEST PUSH2 0x465 PUSH8 0xAE0D89D612BC1372 PUSH1 0xC0 SHL PUSH2 0x2F8 JUMP JUMPDEST PUSH2 0x479 PUSH8 0x70C91802B4FBE508 PUSH1 0xC0 SHL PUSH2 0x2F8 JUMP JUMPDEST PUSH1 0x0 DUP2 EQ DUP1 ISZERO PUSH2 0x499 JUMPI POP PUSH2 0x498 PUSH8 0x6A6748916715F2F1 PUSH1 0xC0 SHL PUSH2 0x1A9A JUMP JUMPDEST JUMPDEST DUP1 PUSH2 0x4C2 JUMPI POP PUSH1 0x2 SLOAD DUP2 LT ISZERO DUP1 ISZERO PUSH2 0x4C1 JUMPI POP PUSH2 0x4C0 PUSH8 0xDC80E4B0BB8B271F PUSH1 0xC0 SHL PUSH2 0x1A9A JUMP JUMPDEST JUMPDEST JUMPDEST PUSH2 0x501 JUMPI PUSH1 0x40 MLOAD PUSH32 0x8C379A000000000000000000000000000000000000000000000000000000000 DUP2 MSTORE PUSH1 0x4 ADD PUSH2 0x4F8 SWAP1 PUSH2 0x2201 JUMP JUMPDEST PUSH1 0x40 MLOAD DUP1 SWAP2 SUB SWAP1 REVERT JUMPDEST PUSH2 0x515 PUSH8 0x52BD68C28833C579 PUSH1 0xC0 SHL PUSH2 0x2F8 JUMP JUMPDEST PUSH2 0x529 PUSH8 0x4626A09402A58406 PUSH1 0xC0 SHL PUSH2 0x2F8 JUMP JUMPDEST DUP1 PUSH1 0x3 DUP2 SWAP1 SSTORE POP PUSH2 0x544 PUSH8 0x8AF73E6E7ADC9A61 PUSH1 0xC0 SHL PUSH2 0x2F8 JUMP JUMPDEST PUSH2 0x558 PUSH8 0x1D53B6E7DA7A7D01 PUSH1 0xC0 SHL PUSH2 0x2F8 JUMP JUMPDEST PUSH32 0x19E394DD4C7B7014550BF9A0E87C94FE70279FA7EC655E54DD7A1597743FEE78 DUP2 PUSH1 0x40 MLOAD PUSH2 0x587 SWAP2 SWAP1 PUSH2 0x1F56 JUMP JUMPDEST PUSH1 0x40 MLOAD DUP1 SWAP2 SUB SWAP1 LOG1 POP JUMP JUMPDEST PUSH1 0x60 DUP1 PUSH2 0x5A9 PUSH8 0xEC91EBA3C69B8BFD PUSH1 0xC0 SHL PUSH2 0x2F8 JUMP JUMPDEST PUSH2 0x5BD PUSH8 0x80FA36A9D720870F PUSH1 0xC0 SHL PUSH2 0x2F8 JUMP JUMPDEST PUSH2 0x5D1 PUSH8 0x52BFB01719A9FA76 PUSH1 0xC0 SHL PUSH2 0x2F8 JUMP JUMPDEST PUSH1 0x0 PUSH1 0x2 SLOAD SWAP1 POP PUSH2 0x5EC PUSH8 0x148B70A669293540 PUSH1 0xC0 SHL PUSH2 0x2F8 JUMP JUMPDEST PUSH2 0x600 PUSH8 0x801E9EC40CFACFDC PUSH1 0xC0 SHL PUSH2 0x2F8 JUMP JUMPDEST DUP1 DUP5 GT ISZERO PUSH2 0x624 JUMPI PUSH2 0x61C PUSH8 0x1FD5F93C13342019 PUSH1 0xC0 SHL PUSH2 0x2F8 JUMP JUMPDEST DUP1 SWAP4 POP PUSH2 0x639 JUMP JUMPDEST PUSH2 0x638 PUSH8 0xDBE62E5778B9C6DA PUSH1 0xC0 SHL PUSH2 0x2F8 JUMP JUMPDEST JUMPDEST PUSH2 0x64D PUSH8 0xE15519618B176800 PUSH1 0xC0 SHL PUSH2 0x2F8 JUMP JUMPDEST DUP4 PUSH8 0xFFFFFFFFFFFFFFFF DUP2 GT ISZERO PUSH2 0x667 JUMPI PUSH2 0x666 PUSH2 0x1CA9 JUMP JUMPDEST JUMPDEST PUSH1 0x40 MLOAD SWAP1 DUP1 DUP3 MSTORE DUP1 PUSH1 0x20 MUL PUSH1 0x20 ADD DUP3 ADD PUSH1 0x40 MSTORE DUP1 ISZERO PUSH2 0x695 JUMPI DUP2 PUSH1 0x20 ADD PUSH1 0x20 DUP3 MUL DUP1 CALLDATASIZE DUP4 CALLDATACOPY DUP1 DUP3 ADD SWAP2 POP POP SWAP1 POP JUMPDEST POP SWAP3 POP PUSH2 0x6AC PUSH8 0xAC65D721E28F4B60 PUSH1 0xC0 SHL PUSH2 0x2F8 JUMP JUMPDEST DUP4 PUSH8 0xFFFFFFFFFFFFFFFF DUP2 GT ISZERO PUSH2 0x6C6 JUMPI PUSH2 0x6C5 PUSH2 0x1CA9 JUMP JUMPDEST JUMPDEST PUSH1 0x40 MLOAD SWAP1 DUP1 DUP3 MSTORE DUP1 PUSH1 0x20 MUL PUSH1 0x20 ADD DUP3 ADD PUSH1 0x40 MSTORE DUP1 ISZERO PUSH2 0x6F4 JUMPI DUP2 PUSH1 0x20 ADD PUSH1 0x20 DUP3 MUL DUP1 CALLDATASIZE DUP4 CALLDATACOPY DUP1 DUP3 ADD SWAP2 POP POP SWAP1 POP JUMPDEST POP SWAP2 POP PUSH2 0x70B PUSH8 0xA83C5F7D7ACB3E27 PUSH1 0xC0 SHL PUSH2 0x2F8 JUMP JUMPDEST PUSH2 0x71F PUSH8 0x5EE6517AEEBE633B PUSH1 0xC0 SHL PUSH2 0x2F8 JUMP JUMPDEST PUSH1 0x0 PUSH1 0x1 DUP3 PUSH2 0x72E SWAP2 SWAP1 PUSH2 0x2250 JUMP JUMPDEST PUSH8 0xFFFFFFFFFFFFFFFF DUP2 GT ISZERO PUSH2 0x747 JUMPI PUSH2 0x746 PUSH2 0x1CA9 JUMP JUMPDEST JUMPDEST PUSH1 0x40 MLOAD SWAP1 DUP1 DUP3 MSTORE DUP1 PUSH1 0x20 MUL PUSH1 0x20 ADD DUP3 ADD PUSH1 0x40 MSTORE DUP1 ISZERO PUSH2 0x775 JUMPI DUP2 PUSH1 0x20 ADD PUSH1 0x20 DUP3 MUL DUP1 CALLDATASIZE DUP4 CALLDATACOPY DUP1 DUP3 ADD SWAP2 POP POP SWAP1 POP JUMPDEST POP SWAP1 POP PUSH2 0x78C PUSH8 0x4EF641FD75E560B7 PUSH1 0xC0 SHL PUSH2 0x2F8 JUMP JUMPDEST PUSH2 0x7A0 PUSH8 0xA0A791CD5F99623A PUSH1 0xC0 SHL PUSH2 0x2F8 JUMP JUMPDEST PUSH1 0x0 JUMPDEST DUP6 DUP2 LT ISZERO PUSH2 0xAB3 JUMPI PUSH2 0x7BF PUSH8 0xADFA5E484841CBF0 PUSH1 0xC0 SHL PUSH2 0x2F8 JUMP JUMPDEST PUSH2 0x7D3 PUSH8 0x2ED8A0C130B0ACA9 PUSH1 0xC0 SHL PUSH2 0x2F8 JUMP JUMPDEST PUSH1 0x0 PUSH2 0x7E9 PUSH8 0x5952E8164FB7B091 PUSH1 0xC0 SHL PUSH2 0x2F8 JUMP JUMPDEST PUSH2 0x7FD PUSH8 0xDF3E573C87D5AD3E PUSH1 0xC0 SHL PUSH2 0x2F8 JUMP JUMPDEST PUSH1 0x0 PUSH2 0x813 PUSH8 0x78E2C146A99FC199 PUSH1 0xC0 SHL PUSH2 0x2F8 JUMP JUMPDEST PUSH2 0x827 PUSH8 0x912CFD33F56E548C PUSH1 0xC0 SHL PUSH2 0x2F8 JUMP JUMPDEST PUSH1 0x0 PUSH1 0x1 SWAP1 POP JUMPDEST DUP6 DUP2 GT PUSH2 0x98D JUMPI PUSH2 0x849 PUSH8 0x834C842A02401EBD PUSH1 0xC0 SHL PUSH2 0x2F8 JUMP JUMPDEST PUSH2 0x85D PUSH8 0x154D087C7C06F527 PUSH1 0xC0 SHL PUSH2 0x2F8 JUMP JUMPDEST DUP5 DUP2 DUP2 MLOAD DUP2 LT PUSH2 0x870 JUMPI PUSH2 0x86F PUSH2 0x2284 JUMP JUMPDEST JUMPDEST PUSH1 0x20 MUL PUSH1 0x20 ADD ADD MLOAD ISZERO PUSH2 0x896 JUMPI PUSH2 0x891 PUSH8 0x8C5024FE1EA822AD PUSH1 0xC0 SHL PUSH2 0x2F8 JUMP JUMPDEST PUSH2 0x97A JUMP JUMPDEST PUSH2 0x8AA PUSH8 0x54B41F4110E0E5C1 PUSH1 0xC0 SHL PUSH2 0x2F8 JUMP JUMPDEST PUSH2 0x8BE PUSH8 0xD8E10280033E7E62 PUSH1 0xC0 SHL PUSH2 0x2F8 JUMP JUMPDEST PUSH2 0x8D2 PUSH8 0x1BF257DB584C4359 PUSH1 0xC0 SHL PUSH2 0x2F8 JUMP JUMPDEST PUSH1 0x0 DUP1 PUSH1 0x0 DUP4 DUP2 MSTORE PUSH1 0x20 ADD SWAP1 DUP2 MSTORE PUSH1 0x20 ADD PUSH1 0x0 KECCAK256 PUSH1 0x4 ADD SLOAD SWAP1 POP PUSH2 0x900 PUSH8 0x81C851245A15355B PUSH1 0xC0 SHL PUSH2 0x2F8 JUMP JUMPDEST PUSH2 0x914 PUSH8 0xA1B6DBEA07074852 PUSH1 0xC0 SHL PUSH2 0x2F8 JUMP JUMPDEST DUP3 DUP2 GT ISZERO PUSH2 0x963 JUMPI PUSH2 0x930 PUSH8 0x5C5E3E18CC8294F9 PUSH1 0xC0 SHL PUSH2 0x2F8 JUMP JUMPDEST PUSH2 0x944 PUSH8 0xD0B430258912E238 PUSH1 0xC0 SHL PUSH2 0x2F8 JUMP JUMPDEST DUP1 SWAP3 POP PUSH2 0x95B PUSH8 0x51BABFA256CA5F38 PUSH1 0xC0 SHL PUSH2 0x2F8 JUMP JUMPDEST DUP2 SWAP4 POP PUSH2 0x978 JUMP JUMPDEST PUSH2 0x977 PUSH8 0xA826F5E65DC9302A PUSH1 0xC0 SHL PUSH2 0x2F8 JUMP JUMPDEST JUMPDEST POP JUMPDEST DUP1 DUP1 PUSH2 0x985 SWAP1 PUSH2 0x22B3 JUMP JUMPDEST SWAP2 POP POP PUSH2 0x82E JUMP JUMPDEST POP PUSH2 0x9A2 PUSH8 0x7EA84F5B2604E60D PUSH1 0xC0 SHL PUSH2 0x2F8 JUMP JUMPDEST PUSH2 0x9B6 PUSH8 0x98978BFDBE8D9509 PUSH1 0xC0 SHL PUSH2 0x2F8 JUMP JUMPDEST PUSH1 0x0 DUP3 SUB PUSH2 0x9ED JUMPI PUSH2 0x9D2 PUSH8 0xB10423D9FF3627BB PUSH1 0xC0 SHL PUSH2 0x2F8 JUMP JUMPDEST PUSH2 0x9E6 PUSH8 0x8CF91E4A69E69446 PUSH1 0xC0 SHL PUSH2 0x2F8 JUMP JUMPDEST POP POP PUSH2 0xAB3 JUMP JUMPDEST PUSH2 0xA01 PUSH8 0x8CBBD7DCEAF2EDC0 PUSH1 0xC0 SHL PUSH2 0x2F8 JUMP JUMPDEST PUSH2 0xA15 PUSH8 0xEF595A5AFE4DC887 PUSH1 0xC0 SHL PUSH2 0x2F8 JUMP JUMPDEST PUSH1 0x1 DUP5 DUP4 DUP2 MLOAD DUP2 LT PUSH2 0xA2A JUMPI PUSH2 0xA29 PUSH2 0x2284 JUMP JUMPDEST JUMPDEST PUSH1 0x20 MUL PUSH1 0x20 ADD ADD SWAP1 ISZERO ISZERO SWAP1 DUP2 ISZERO ISZERO DUP2 MSTORE POP POP PUSH2 0xA50 PUSH8 0xC1A83531AAEEBA93 PUSH1 0xC0 SHL PUSH2 0x2F8 JUMP JUMPDEST DUP2 DUP8 DUP5 DUP2 MLOAD DUP2 LT PUSH2 0xA64 JUMPI PUSH2 0xA63 PUSH2 0x2284 JUMP JUMPDEST JUMPDEST PUSH1 0x20 MUL PUSH1 0x20 ADD ADD DUP2 DUP2 MSTORE POP POP PUSH2 0xA84 PUSH8 0x989899E857702301 PUSH1 0xC0 SHL PUSH2 0x2F8 JUMP JUMPDEST DUP1 DUP7 DUP5 DUP2 MLOAD DUP2 LT PUSH2 0xA98 JUMPI PUSH2 0xA97 PUSH2 0x2284 JUMP JUMPDEST JUMPDEST PUSH1 0x20 MUL PUSH1 0x20 ADD ADD DUP2 DUP2 MSTORE POP POP POP POP DUP1 DUP1 PUSH1 0x1 ADD SWAP2 POP POP PUSH2 0x7A3 JUMP JUMPDEST POP POP POP SWAP2 POP SWAP2 JUMP JUMPDEST PUSH2 0xACF PUSH8 0xB6EB7A045AEC6F2A PUSH1 0xC0 SHL PUSH2 0x2F8 JUMP JUMPDEST PUSH2 0xAE3 PUSH8 0xBD28B2F59BAAC4A3 PUSH1 0xC0 SHL PUSH2 0x2F8 JUMP JUMPDEST PUSH2 0xAF7 PUSH8 0x7C148C47B8B945DE PUSH1 0xC0 SHL PUSH2 0x2F8 JUMP JUMPDEST PUSH2 0xB0B PUSH8 0xE08BECD18452C030 PUSH1 0xC0 SHL PUSH2 0x2F8 JUMP JUMPDEST PUSH1 0x1 DUP2 PUSH1 0xFF AND LT ISZERO DUP1 ISZERO PUSH2 0xB23 JUMPI POP PUSH1 0x3 DUP2 PUSH1 0xFF AND GT ISZERO JUMPDEST PUSH2 0xB62 JUMPI PUSH1 0x40 MLOAD PUSH32 0x8C379A000000000000000000000000000000000000000000000000000000000 DUP2 MSTORE PUSH1 0x4 ADD PUSH2 0xB59 SWAP1 PUSH2 0x2347 JUMP JUMPDEST PUSH1 0x40 MLOAD DUP1 SWAP2 SUB SWAP1 REVERT JUMPDEST PUSH2 0xB76 PUSH8 0x8818C389EC6D0738 PUSH1 0xC0 SHL PUSH2 0x2F8 JUMP JUMPDEST PUSH2 0xB8A PUSH8 0xD17C80AA8EBF8AAB PUSH1 0xC0 SHL PUSH2 0x2F8 JUMP JUMPDEST PUSH2 0xB9E PUSH8 0x2816AA34B957C795 PUSH1 0xC0 SHL PUSH2 0x2F8 JUMP JUMPDEST PUSH2 0xBB2 PUSH8 0x5176C1A5AD0B643E PUSH1 0xC0 SHL PUSH2 0x2F8 JUMP JUMPDEST PUSH1 0x0 PUSH1 0x3 SLOAD EQ DUP1 ISZERO PUSH2 0xBD4 JUMPI POP PUSH2 0xBD3 PUSH8 0x9C8DA330B9FDD13A PUSH1 0xC0 SHL PUSH2 0x1A9A JUMP JUMPDEST JUMPDEST DUP1 PUSH2 0xBFE JUMPI POP PUSH1 0x3 SLOAD PUSH1 0x2 SLOAD LT DUP1 ISZERO PUSH2 0xBFD JUMPI POP PUSH2 0xBFC PUSH8 0xC69DA7DC1CF35413 PUSH1 0xC0 SHL PUSH2 0x1A9A JUMP JUMPDEST JUMPDEST JUMPDEST PUSH2 0xC3D JUMPI PUSH1 0x40 MLOAD PUSH32 0x8C379A000000000000000000000000000000000000000000000000000000000 DUP2 MSTORE PUSH1 0x4 ADD PUSH2 0xC34 SWAP1 PUSH2 0x23B3 JUMP JUMPDEST PUSH1 0x40 MLOAD DUP1 SWAP2 SUB SWAP1 REVERT JUMPDEST PUSH2 0xC51 PUSH8 0x744BB4D9DEB21BD8 PUSH1 0xC0 SHL PUSH2 0x2F8 JUMP JUMPDEST PUSH2 0xC65 PUSH8 0x81A106C756ECD485 PUSH1 0xC0 SHL PUSH2 0x2F8 JUMP JUMPDEST PUSH1 0x2 PUSH1 0x0 DUP2 SLOAD DUP1 SWAP3 SWAP2 SWAP1 PUSH2 0xC78 SWAP1 PUSH2 0x22B3 JUMP JUMPDEST SWAP2 SWAP1 POP SSTORE POP PUSH2 0xC91 PUSH8 0x6B4000128FBEBC94 PUSH1 0xC0 SHL PUSH2 0x2F8 JUMP JUMPDEST PUSH1 0x40 MLOAD DUP1 PUSH1 0xE0 ADD PUSH1 0x40 MSTORE DUP1 CALLER PUSH20 0xFFFFFFFFFFFFFFFFFFFFFFFFFFFFFFFFFFFFFFFF AND DUP2 MSTORE PUSH1 0x20 ADD DUP4 DUP2 MSTORE PUSH1 0x20 ADD DUP3 PUSH1 0xFF AND DUP2 MSTORE PUSH1 0x20 ADD PUSH1 0x0 DUP2 MSTORE PUSH1 0x20 ADD PUSH1 0x0 DUP2 MSTORE PUSH1 0x20 ADD PUSH1 0x1 ISZERO ISZERO DUP2 MSTORE PUSH1 0x20 ADD PUSH1 0x0 ISZERO ISZERO DUP2 MSTORE POP PUSH1 0x0 DUP1 PUSH1 0x2 SLOAD DUP2 MSTORE PUSH1 0x20 ADD SWAP1 DUP2 MSTORE PUSH1 0x20 ADD PUSH1 0x0 KECCAK256 PUSH1 0x0 DUP3 ADD MLOAD DUP2 PUSH1 0x0 ADD PUSH1 0x0 PUSH2 0x100 EXP DUP2 SLOAD DUP2 PUSH20 0xFFFFFFFFFFFFFFFFFFFFFFFFFFFFFFFFFFFFFFFF MUL NOT AND SWAP1 DUP4 PUSH20 0xFFFFFFFFFFFFFFFFFFFFFFFFFFFFFFFFFFFFFFFF AND MUL OR SWAP1 SSTORE POP PUSH1 0x20 DUP3 ADD MLOAD DUP2 PUSH1 0x1 ADD SWAP1 DUP2 PUSH2 0xD55 SWAP2 SWAP1 PUSH2 0x25DF JUMP JUMPDEST POP PUSH1 0x40 DUP3 ADD MLOAD DUP2 PUSH1 0x2 ADD PUSH1 0x0 PUSH2 0x100 EXP DUP2 SLOAD DUP2 PUSH1 0xFF MUL NOT AND SWAP1 DUP4 PUSH1 0xFF AND MUL OR SWAP1 SSTORE POP PUSH1 0x60 DUP3 ADD MLOAD DUP2 PUSH1 0x3 ADD SSTORE PUSH1 0x80 DUP3 ADD MLOAD DUP2 PUSH1 0x4 ADD SSTORE PUSH1 0xA0 DUP3 ADD MLOAD DUP2 PUSH1 0x5 ADD PUSH1 0x0 PUSH2 0x100 EXP DUP2 SLOAD DUP2 PUSH1 0xFF MUL NOT AND SWAP1 DUP4 ISZERO ISZERO MUL OR SWAP1 SSTORE POP PUSH1 0xC0 DUP3 ADD MLOAD DUP2 PUSH1 0x5 ADD PUSH1 0x1 PUSH2 0x100 EXP DUP2 SLOAD DUP2 PUSH1 0xFF MUL NOT AND SWAP1 DUP4 ISZERO ISZERO MUL OR SWAP1 SSTORE POP SWAP1 POP POP PUSH2 0xDE2 PUSH8 0xCB1E9550E3F49627 PUSH1 0xC0 SHL PUSH2 0x2F8 JUMP JUMPDEST PUSH2 0xDF6 PUSH8 0x9D074DB5A9187FF8 PUSH1 0xC0 SHL PUSH2 0x2F8 JUMP JUMPDEST CALLER PUSH20 0xFFFFFFFFFFFFFFFFFFFFFFFFFFFFFFFFFFFFFFFF AND PUSH1 0x2 SLOAD PUSH32 0x21B2DB1A1ADA48172B5B2612D06D7EBCE476CA96C837CED65A1E306D75921EDD DUP5 DUP5 PUSH1 0x40 MLOAD PUSH2 0xE41 SWAP3 SWAP2 SWAP1 PUSH2 0x26B1 JUMP JUMPDEST PUSH1 0x40 MLOAD DUP1 SWAP2 SUB SWAP1 LOG3 POP POP JUMP JUMPDEST PUSH2 0xE61 PUSH8 0xCED5B850F2BB5FEC PUSH1 0xC0 SHL PUSH2 0x2F8 JUMP JUMPDEST PUSH2 0xE75 PUSH8 0xF55F4CDDA2BEED61 PUSH1 0xC0 SHL PUSH2 0x2F8 JUMP JUMPDEST PUSH2 0xE89 PUSH8 0xFD4FC64DA5A756AA PUSH1 0xC0 SHL PUSH2 0x2F8 JUMP JUMPDEST PUSH1 0x0 DUP1 PUSH1 0x0 DUP5 DUP2 MSTORE PUSH1 0x20 ADD SWAP1 DUP2 MSTORE PUSH1 0x20 ADD PUSH1 0x0 KECCAK256 SWAP1 POP PUSH2 0xEB3 PUSH8 0x6A705D8E346BE24D PUSH1 0xC0 SHL PUSH2 0x2F8 JUMP JUMPDEST PUSH2 0xEC7 PUSH8 0x15E565EC8BF34890 PUSH1 0xC0 SHL PUSH2 0x2F8 JUMP JUMPDEST PUSH2 0xEDB PUSH8 0x8BC2D103B457A01E PUSH1 0xC0 SHL PUSH2 0x2F8 JUMP JUMPDEST DUP1 PUSH1 0x0 ADD PUSH1 0x0 SWAP1 SLOAD SWAP1 PUSH2 0x100 EXP SWAP1 DIV PUSH20 0xFFFFFFFFFFFFFFFFFFFFFFFFFFFFFFFFFFFFFFFF AND PUSH20 0xFFFFFFFFFFFFFFFFFFFFFFFFFFFFFFFFFFFFFFFF AND CALLER PUSH20 0xFFFFFFFFFFFFFFFFFFFFFFFFFFFFFFFFFFFFFFFF AND EQ PUSH2 0xF6D JUMPI PUSH1 0x40 MLOAD PUSH32 0x8C379A000000000000000000000000000000000000000000000000000000000 DUP2 MSTORE PUSH1 0x4 ADD PUSH2 0xF64 SWAP1 PUSH2 0x272D JUMP JUMPDEST PUSH1 0x40 MLOAD DUP1 SWAP2 SUB SWAP1 REVERT JUMPDEST PUSH2 0xF81 PUSH8 0xF975A9E1F20D5315 PUSH1 0xC0 SHL PUSH2 0x2F8 JUMP JUMPDEST PUSH2 0xF95 PUSH8 0x74CFEAA73BA3FAC7 PUSH1 0xC0 SHL PUSH2 0x2F8 JUMP JUMPDEST PUSH2 0xFA9 PUSH8 0xA4B76F47BA56545D PUSH1 0xC0 SHL PUSH2 0x2F8 JUMP JUMPDEST PUSH2 0xFBD PUSH8 0x721F17798EAE95F8 PUSH1 0xC0 SHL PUSH2 0x2F8 JUMP JUMPDEST DUP1 PUSH1 0x5 ADD PUSH1 0x1 SWAP1 SLOAD SWAP1 PUSH2 0x100 EXP SWAP1 DIV PUSH1 0xFF AND ISZERO PUSH2 0x100F JUMPI PUSH1 0x40 MLOAD PUSH32 0x8C379A000000000000000000000000000000000000000000000000000000000 DUP2 MSTORE PUSH1 0x4 ADD PUSH2 0x1006 SWAP1 PUSH2 0x2799 JUMP JUMPDEST PUSH1 0x40 MLOAD DUP1 SWAP2 SUB SWAP1 REVERT JUMPDEST PUSH2 0x1023 PUSH8 0x5B3E96B38A8BF5FB PUSH1 0xC0 SHL PUSH2 0x2F8 JUMP JUMPDEST PUSH2 0x1037 PUSH8 0xB3B7CCBF8F0D9087 PUSH1 0xC0 SHL PUSH2 0x2F8 JUMP JUMPDEST PUSH2 0x104B PUSH8 0x528C1FB565276F98 PUSH1 0xC0 SHL PUSH2 0x2F8 JUMP JUMPDEST PUSH2 0x105F PUSH8 0x93F2D7983C9DB79C PUSH1 0xC0 SHL PUSH2 0x2F8 JUMP JUMPDEST DUP1 PUSH1 0x2 ADD PUSH1 0x0 SWAP1 SLOAD SWAP1 PUSH2 0x100 EXP SWAP1 DIV PUSH1 0xFF AND PUSH1 0xFF AND DUP3 LT ISZERO PUSH2 0x10B6 JUMPI PUSH1 0x40 MLOAD PUSH32 0x8C379A000000000000000000000000000000000000000000000000000000000 DUP2 MSTORE PUSH1 0x4 ADD PUSH2 0x10AD SWAP1 PUSH2 0x2805 JUMP JUMPDEST PUSH1 0x40 MLOAD DUP1 SWAP2 SUB SWAP1 REVERT JUMPDEST PUSH2 0x10CA PUSH8 0xD0E83C5340E8A279 PUSH1 0xC0 SHL PUSH2 0x2F8 JUMP JUMPDEST PUSH2 0x10DE PUSH8 0x99B2643B48813F0B PUSH1 0xC0 SHL PUSH2 0x2F8 JUMP JUMPDEST PUSH1 0x1 DUP2 PUSH1 0x5 ADD PUSH1 0x1 PUSH2 0x100 EXP DUP2 SLOAD DUP2 PUSH1 0xFF MUL NOT AND SWAP1 DUP4 ISZERO ISZERO MUL OR SWAP1 SSTORE POP PUSH2 0x110F PUSH8 0x23108AC995CC9AB4 PUSH1 0xC0 SHL PUSH2 0x2F8 JUMP JUMPDEST PUSH2 0x1123 PUSH8 0x78EF0F3A91736CC8 PUSH1 0xC0 SHL PUSH2 0x2F8 JUMP JUMPDEST PUSH1 0x0 DUP2 PUSH1 0x3 ADD SLOAD SWAP1 POP PUSH2 0x1140 PUSH8 0x5B9C1B0FAD0A5979 PUSH1 0xC0 SHL PUSH2 0x2F8 JUMP JUMPDEST PUSH1 0x0 DUP3 PUSH1 0x3 ADD DUP2 SWAP1 SSTORE POP PUSH2 0x115E PUSH8 0xA228D0A23955F0B7 PUSH1 0xC0 SHL PUSH2 0x2F8 JUMP JUMPDEST PUSH2 0x1172 PUSH8 0x63A9B4B09E00E826 PUSH1 0xC0 SHL PUSH2 0x2F8 JUMP JUMPDEST DUP2 PUSH1 0x0 ADD PUSH1 0x0 SWAP1 SLOAD SWAP1 PUSH2 0x100 EXP SWAP1 DIV PUSH20 0xFFFFFFFFFFFFFFFFFFFFFFFFFFFFFFFFFFFFFFFF AND PUSH20 0xFFFFFFFFFFFFFFFFFFFFFFFFFFFFFFFFFFFFFFFF AND PUSH2 0x8FC DUP3 SWAP1 DUP2 ISZERO MUL SWAP1 PUSH1 0x40 MLOAD PUSH1 0x0 PUSH1 0x40 MLOAD DUP1 DUP4 SUB DUP2 DUP6 DUP9 DUP9 CALL SWAP4 POP POP POP POP ISZERO DUP1 ISZERO PUSH2 0x11DC JUMPI RETURNDATASIZE PUSH1 0x0 DUP1 RETURNDATACOPY RETURNDATASIZE PUSH1 0x0 REVERT JUMPDEST POP PUSH2 0x11F1 PUSH8 0x847D85CF386F6C3D PUSH1 0xC0 SHL PUSH2 0x2F8 JUMP JUMPDEST PUSH2 0x1205 PUSH8 0x908B9CC61DBD38D3 PUSH1 0xC0 SHL PUSH2 0x2F8 JUMP JUMPDEST DUP2 PUSH1 0x0 ADD PUSH1 0x0 SWAP1 SLOAD SWAP1 PUSH2 0x100 EXP SWAP1 DIV PUSH20 0xFFFFFFFFFFFFFFFFFFFFFFFFFFFFFFFFFFFFFFFF AND PUSH20 0xFFFFFFFFFFFFFFFFFFFFFFFFFFFFFFFFFFFFFFFF AND DUP5 PUSH32 0xC81BE14279D47C3277E33E7F25220796E83497D2B34F16612A9FA70D565FFC35 DUP4 PUSH1 0x40 MLOAD PUSH2 0x1270 SWAP2 SWAP1 PUSH2 0x1F56 JUMP JUMPDEST PUSH1 0x40 MLOAD DUP1 SWAP2 SUB SWAP1 LOG3 POP POP POP POP JUMP JUMPDEST PUSH1 0x1 PUSH1 0x20 MSTORE DUP2 PUSH1 0x0 MSTORE PUSH1 0x40 PUSH1 0x0 KECCAK256 PUSH1 0x20 MSTORE DUP1 PUSH1 0x0 MSTORE PUSH1 0x40 PUSH1 0x0 KECCAK256 PUSH1 0x0 SWAP2 POP SWAP2 POP POP SLOAD DUP2 JUMP JUMPDEST PUSH2 0x12B7 PUSH8 0x561E0ABBF974B73B PUSH1 0xC0 SHL PUSH2 0x2F8 JUMP JUMPDEST PUSH2 0x12CB PUSH8 0x2CF92E2948E49E1D PUSH1 0xC0 SHL PUSH2 0x2F8 JUMP JUMPDEST PUSH2 0x12DF PUSH8 0x882310C18F573858 PUSH1 0xC0 SHL PUSH2 0x2F8 JUMP JUMPDEST PUSH1 0x0 DUP1 PUSH1 0x0 DUP4 DUP2 MSTORE PUSH1 0x20 ADD SWAP1 DUP2 MSTORE PUSH1 0x20 ADD PUSH1 0x0 KECCAK256 SWAP1 POP PUSH2 0x1309 PUSH8 0x986022E288D772E7 PUSH1 0xC0 SHL PUSH2 0x2F8 JUMP JUMPDEST PUSH2 0x131D PUSH8 0x7BC8983B825D3197 PUSH1 0xC0 SHL PUSH2 0x2F8 JUMP JUMPDEST PUSH2 0x1331 PUSH8 0x9C4EB7A83A156D3C PUSH1 0xC0 SHL PUSH2 0x2F8 JUMP JUMPDEST DUP1 PUSH1 0x5 ADD PUSH1 0x0 SWAP1 SLOAD SWAP1 PUSH2 0x100 EXP SWAP1 DIV PUSH1 0xFF AND PUSH2 0x1382 JUMPI PUSH1 0x40 MLOAD PUSH32 0x8C379A000000000000000000000000000000000000000000000000000000000 DUP2 MSTORE PUSH1 0x4 ADD PUSH2 0x1379 SWAP1 PUSH2 0x2871 JUMP JUMPDEST PUSH1 0x40 MLOAD DUP1 SWAP2 SUB SWAP1 REVERT JUMPDEST PUSH2 0x1396 PUSH8 0xE057C16C415DF122 PUSH1 0xC0 SHL PUSH2 0x2F8 JUMP JUMPDEST PUSH2 0x13AA PUSH8 0x2818C1D86333C923 PUSH1 0xC0 SHL PUSH2 0x2F8 JUMP JUMPDEST PUSH2 0x13BE PUSH8 0x48E1C4B2C86EBBEE PUSH1 0xC0 SHL PUSH2 0x2F8 JUMP JUMPDEST PUSH2 0x13D2 PUSH8 0xCBC7A6457A7BE6B PUSH1 0xC0 SHL PUSH2 0x2F8 JUMP JUMPDEST PUSH1 0x0 CALLVALUE GT PUSH2 0x1415 JUMPI PUSH1 0x40 MLOAD PUSH32 0x8C379A000000000000000000000000000000000000000000000000000000000 DUP2 MSTORE PUSH1 0x4 ADD PUSH2 0x140C SWAP1 PUSH2 0x28DD JUMP JUMPDEST PUSH1 0x40 MLOAD DUP1 SWAP2 SUB SWAP1 REVERT JUMPDEST PUSH2 0x1429 PUSH8 0x973D0A063A301669 PUSH1 0xC0 SHL PUSH2 0x2F8 JUMP JUMPDEST PUSH2 0x143D PUSH8 0x7AAFC003473EA83A PUSH1 0xC0 SHL PUSH2 0x2F8 JUMP JUMPDEST CALLVALUE DUP2 PUSH1 0x3 ADD PUSH1 0x0 DUP3 DUP3 SLOAD PUSH2 0x1451 SWAP2 SWAP1 PUSH2 0x2250 JUMP JUMPDEST SWAP3 POP POP DUP2 SWAP1 SSTORE POP PUSH2 0x146C PUSH8 0xE56FDA2E855CDD68 PUSH1 0xC0 SHL PUSH2 0x2F8 JUMP JUMPDEST CALLVALUE DUP2 PUSH1 0x4 ADD PUSH1 0x0 DUP3 DUP3 SLOAD PUSH2 0x1480 SWAP2 SWAP1 PUSH2 0x2250 JUMP JUMPDEST SWAP3 POP POP DUP2 SWAP1 SSTORE POP PUSH2 0x149B PUSH8 0x99445EDE98693465 PUSH1 0xC0 SHL PUSH2 0x2F8 JUMP JUMPDEST CALLVALUE PUSH1 0x1 PUSH1 0x0 DUP5 DUP2 MSTORE PUSH1 0x20 ADD SWAP1 DUP2 MSTORE PUSH1 0x20 ADD PUSH1 0x0 KECCAK256 PUSH1 0x0 CALLER PUSH20 0xFFFFFFFFFFFFFFFFFFFFFFFFFFFFFFFFFFFFFFFF AND PUSH20 0xFFFFFFFFFFFFFFFFFFFFFFFFFFFFFFFFFFFFFFFF AND DUP2 MSTORE PUSH1 0x20 ADD SWAP1 DUP2 MSTORE PUSH1 0x20 ADD PUSH1 0x0 KECCAK256 PUSH1 0x0 DUP3 DUP3 SLOAD PUSH2 0x14FB SWAP2 SWAP1 PUSH2 0x2250 JUMP JUMPDEST SWAP3 POP POP DUP2 SWAP1 SSTORE POP PUSH2 0x1516 PUSH8 0xDD3ADDFFA84409BF PUSH1 0xC0 SHL PUSH2 0x2F8 JUMP JUMPDEST PUSH2 0x152A PUSH8 0xFC03CF74CE57C57E PUSH1 0xC0 SHL PUSH2 0x2F8 JUMP JUMPDEST CALLER PUSH20 0xFFFFFFFFFFFFFFFFFFFFFFFFFFFFFFFFFFFFFFFF AND DUP3 PUSH32 0x61AC8E9B735E72D1382CBF7D35F2FF3764DAE09D7FAF7D90787BF7F9AE76E4C8 CALLVALUE PUSH1 0x40 MLOAD PUSH2 0x1571 SWAP2 SWAP1 PUSH2 0x1F56 JUMP JUMPDEST PUSH1 0x40 MLOAD DUP1 SWAP2 SUB SWAP1 LOG3 POP POP JUMP JUMPDEST PUSH1 0x0 PUSH1 0x20 MSTORE DUP1 PUSH1 0x0 MSTORE PUSH1 0x40 PUSH1 0x0 KECCAK256 PUSH1 0x0 SWAP2 POP SWAP1 POP DUP1 PUSH1 0x0 ADD PUSH1 0x0 SWAP1 SLOAD SWAP1 PUSH2 0x100 EXP SWAP1 DIV PUSH20 0xFFFFFFFFFFFFFFFFFFFFFFFFFFFFFFFFFFFFFFFF AND SWAP1 DUP1 PUSH1 0x1 ADD DUP1 SLOAD PUSH2 0x15C6 SWAP1 PUSH2 0x2402 JUMP JUMPDEST DUP1 PUSH1 0x1F ADD PUSH1 0x20 DUP1 SWAP2 DIV MUL PUSH1 0x20 ADD PUSH1 0x40 MLOAD SWAP1 DUP2 ADD PUSH1 0x40 MSTORE DUP1 SWAP3 SWAP2 SWAP1 DUP2 DUP2 MSTORE PUSH1 0x20 ADD DUP3 DUP1 SLOAD PUSH2 0x15F2 SWAP1 PUSH2 0x2402 JUMP JUMPDEST DUP1 ISZERO PUSH2 0x163F JUMPI DUP1 PUSH1 0x1F LT PUSH2 0x1614 JUMPI PUSH2 0x100 DUP1 DUP4 SLOAD DIV MUL DUP4 MSTORE SWAP2 PUSH1 0x20 ADD SWAP2 PUSH2 0x163F JUMP JUMPDEST DUP3 ADD SWAP2 SWAP1 PUSH1 0x0 MSTORE PUSH1 0x20 PUSH1 0x0 KECCAK256 SWAP1 JUMPDEST DUP2 SLOAD DUP2 MSTORE SWAP1 PUSH1 0x1 ADD SWAP1 PUSH1 0x20 ADD DUP1 DUP4 GT PUSH2 0x1622 JUMPI DUP3 SWAP1 SUB PUSH1 0x1F AND DUP3 ADD SWAP2 JUMPDEST POP POP POP POP POP SWAP1 DUP1 PUSH1 0x2 ADD PUSH1 0x0 SWAP1 SLOAD SWAP1 PUSH2 0x100 EXP SWAP1 DIV PUSH1 0xFF AND SWAP1 DUP1 PUSH1 0x3 ADD SLOAD SWAP1 DUP1 PUSH1 0x4 ADD SLOAD SWAP1 DUP1 PUSH1 0x5 ADD PUSH1 0x0 SWAP1 SLOAD SWAP1 PUSH2 0x100 EXP SWAP1 DIV PUSH1 0xFF AND SWAP1 DUP1 PUSH1 0x5 ADD PUSH1 0x1 SWAP1 SLOAD SWAP1 PUSH2 0x100 EXP SWAP1 DIV PUSH1 0xFF AND SWAP1 POP DUP8 JUMP JUMPDEST PUSH32 0x0 DUP2 JUMP JUMPDEST PUSH1 0x2 SLOAD DUP2 JUMP JUMPDEST PUSH1 0x3 SLOAD DUP2 JUMP JUMPDEST PUSH2 0x16D2 PUSH8 0x8406BCAC0BF03D3 PUSH1 0xC0 SHL PUSH2 0x2F8 JUMP JUMPDEST PUSH2 0x16E6 PUSH8 0x2EE3D89F95624EF2 PUSH1 0xC0 SHL PUSH2 0x2F8 JUMP JUMPDEST PUSH2 0x16FA PUSH8 0x2D6560BE19B26F23 PUSH1 0xC0 SHL PUSH2 0x2F8 JUMP JUMPDEST PUSH1 0x0 DUP1 PUSH1 0x0 DUP6 DUP2 MSTORE PUSH1 0x20 ADD SWAP1 DUP2 MSTORE PUSH1 0x20 ADD PUSH1 0x0 KECCAK256 SWAP1 POP PUSH2 0x1724 PUSH8 0xA1BDC3DB03961E2D PUSH1 0xC0 SHL PUSH2 0x2F8 JUMP JUMPDEST PUSH2 0x1738 PUSH8 0x996F55336AC302B7 PUSH1 0xC0 SHL PUSH2 0x2F8 JUMP JUMPDEST PUSH2 0x174C PUSH8 0xC79A355F3B2249BB PUSH1 0xC0 SHL PUSH2 0x2F8 JUMP JUMPDEST DUP1 PUSH1 0x0 ADD PUSH1 0x0 SWAP1 SLOAD SWAP1 PUSH2 0x100 EXP SWAP1 DIV PUSH20 0xFFFFFFFFFFFFFFFFFFFFFFFFFFFFFFFFFFFFFFFF AND PUSH20 0xFFFFFFFFFFFFFFFFFFFFFFFFFFFFFFFFFFFFFFFF AND CALLER PUSH20 0xFFFFFFFFFFFFFFFFFFFFFFFFFFFFFFFFFFFFFFFF AND EQ PUSH2 0x17DE JUMPI PUSH1 0x40 MLOAD PUSH32 0x8C379A000000000000000000000000000000000000000000000000000000000 DUP2 MSTORE PUSH1 0x4 ADD PUSH2 0x17D5 SWAP1 PUSH2 0x272D JUMP JUMPDEST PUSH1 0x40 MLOAD DUP1 SWAP2 SUB SWAP1 REVERT JUMPDEST PUSH2 0x17F2 PUSH8 0xADF4E7E64B974526 PUSH1 0xC0 SHL PUSH2 0x2F8 JUMP JUMPDEST PUSH2 0x1806 PUSH8 0x243ED873F82CE777 PUSH1 0xC0 SHL PUSH2 0x2F8 JUMP JUMPDEST PUSH2 0x181A PUSH8 0x36E075975EC3D7CE PUSH1 0xC0 SHL PUSH2 0x2F8 JUMP JUMPDEST PUSH2 0x182E PUSH8 0x7F24974B3B71D265 PUSH1 0xC0 SHL PUSH2 0x2F8 JUMP JUMPDEST DUP2 PUSH1 0x1 PUSH1 0x0 DUP7 DUP2 MSTORE PUSH1 0x20 ADD SWAP1 DUP2 MSTORE PUSH1 0x20 ADD PUSH1 0x0 KECCAK256 PUSH1 0x0 DUP6 PUSH20 0xFFFFFFFFFFFFFFFFFFFFFFFFFFFFFFFFFFFFFFFF AND PUSH20 0xFFFFFFFFFFFFFFFFFFFFFFFFFFFFFFFFFFFFFFFF AND DUP2 MSTORE PUSH1 0x20 ADD SWAP1 DUP2 MSTORE PUSH1 0x20 ADD PUSH1 0x0 KECCAK256 SLOAD LT ISZERO PUSH2 0x18C1 JUMPI PUSH1 0x40 MLOAD PUSH32 0x8C379A000000000000000000000000000000000000000000000000000000000 DUP2 MSTORE PUSH1 0x4 ADD PUSH2 0x18B8 SWAP1 PUSH2 0x2949 JUMP JUMPDEST PUSH1 0x40 MLOAD DUP1 SWAP2 SUB SWAP1 REVERT JUMPDEST PUSH2 0x18D5 PUSH8 0x4067F72A73CBE3A5 PUSH1 0xC0 SHL PUSH2 0x2F8 JUMP JUMPDEST PUSH2 0x18E9 PUSH8 0x70470C6EF867F41A PUSH1 0xC0 SHL PUSH2 0x2F8 JUMP JUMPDEST DUP2 PUSH1 0x1 PUSH1 0x0 DUP7 DUP2 MSTORE PUSH1 0x20 ADD SWAP1 DUP2 MSTORE PUSH1 0x20 ADD PUSH1 0x0 KECCAK256 PUSH1 0x0 DUP6 PUSH20 0xFFFFFFFFFFFFFFFFFFFFFFFFFFFFFFFFFFFFFFFF AND PUSH20 0xFFFFFFFFFFFFFFFFFFFFFFFFFFFFFFFFFFFFFFFF AND DUP2 MSTORE PUSH1 0x20 ADD SWAP1 DUP2 MSTORE PUSH1 0x20 ADD PUSH1 0x0 KECCAK256 PUSH1 0x0 DUP3 DUP3 SLOAD PUSH2 0x1949 SWAP2 SWAP1 PUSH2 0x2969 JUMP JUMPDEST SWAP3 POP POP DUP2 SWAP1 SSTORE POP PUSH2 0x1964 PUSH8 0x3FACEFD99DE59D0B PUSH1 0xC0 SHL PUSH2 0x2F8 JUMP JUMPDEST DUP2 DUP2 PUSH1 0x3 ADD PUSH1 0x0 DUP3 DUP3 SLOAD PUSH2 0x1978 SWAP2 SWAP1 PUSH2 0x2969 JUMP JUMPDEST SWAP3 POP POP DUP2 SWAP1 SSTORE POP PUSH2 0x1993 PUSH8 0x98A462C2B8A6B778 PUSH1 0xC0 SHL PUSH2 0x2F8 JUMP JUMPDEST DUP2 DUP2 PUSH1 0x4 ADD PUSH1 0x0 DUP3 DUP3 SLOAD PUSH2 0x19A7 SWAP2 SWAP1 PUSH2 0x2969 JUMP JUMPDEST SWAP3 POP POP DUP2 SWAP1 SSTORE POP PUSH2 0x19C2 PUSH8 0xFD3EAFFD5B6399E3 PUSH1 0xC0 SHL PUSH2 0x2F8 JUMP JUMPDEST PUSH2 0x19D6 PUSH8 0x4F116981BC0F15D2 PUSH1 0xC0 SHL PUSH2 0x2F8 JUMP JUMPDEST DUP3 PUSH20 0xFFFFFFFFFFFFFFFFFFFFFFFFFFFFFFFFFFFFFFFF AND PUSH2 0x8FC DUP4 SWAP1 DUP2 ISZERO MUL SWAP1 PUSH1 0x40 MLOAD PUSH1 0x0 PUSH1 0x40 MLOAD DUP1 DUP4 SUB DUP2 DUP6 DUP9 DUP9 CALL SWAP4 POP POP POP POP ISZERO DUP1 ISZERO PUSH2 0x1A1C JUMPI RETURNDATASIZE PUSH1 0x0 DUP1 RETURNDATACOPY RETURNDATASIZE PUSH1 0x0 REVERT JUMPDEST POP PUSH2 0x1A31 PUSH8 0x4317BF07C7B7D428 PUSH1 0xC0 SHL PUSH2 0x2F8 JUMP JUMPDEST PUSH2 0x1A45 PUSH8 0x697F34922E5F1654 PUSH1 0xC0 SHL PUSH2 0x2F8 JUMP JUMPDEST DUP3 PUSH20 0xFFFFFFFFFFFFFFFFFFFFFFFFFFFFFFFFFFFFFFFF AND DUP5 PUSH32 0x7A482FDEB6BC9A1376F597068A214A7A39472BB2EFF1B8CAD21BA04F49DDCA1B DUP5 PUSH1 0x40 MLOAD PUSH2 0x1A8C SWAP2 SWAP1 PUSH2 0x1F56 JUMP JUMPDEST PUSH1 0x40 MLOAD DUP1 SWAP2 SUB SWAP1 LOG3 POP POP POP POP JUMP JUMPDEST PUSH1 0x0 PUSH1 0x1 SWAP1 POP SWAP2 SWAP1 POP JUMP JUMPDEST PUSH1 0x0 DUP3 DUP3 MSTORE PUSH1 0x20 DUP3 ADD SWAP1 POP SWAP3 SWAP2 POP POP JUMP JUMPDEST PUSH32 0x506C656173652075736520706179546F5374616C6C0000000000000000000000 PUSH1 0x0 DUP3 ADD MSTORE POP JUMP JUMPDEST PUSH1 0x0 PUSH2 0x1AEC PUSH1 0x15 DUP4 PUSH2 0x1AA5 JUMP JUMPDEST SWAP2 POP PUSH2 0x1AF7 DUP3 PUSH2 0x1AB6 JUMP JUMPDEST PUSH1 0x20 DUP3 ADD SWAP1 POP SWAP2 SWAP1 POP JUMP JUMPDEST PUSH1 0x0 PUSH1 0x20 DUP3 ADD SWAP1 POP DUP2 DUP2 SUB PUSH1 0x0 DUP4 ADD MSTORE PUSH2 0x1B1B DUP2 PUSH2 0x1ADF JUMP JUMPDEST SWAP1 POP SWAP2 SWAP1 POP JUMP JUMPDEST PUSH1 0x0 PUSH1 0x40 MLOAD SWAP1 POP SWAP1 JUMP JUMPDEST PUSH1 0x0 DUP1 REVERT JUMPDEST PUSH1 0x0 DUP1 REVERT JUMPDEST PUSH1 0x0 DUP2 SWAP1 POP SWAP2 SWAP1 POP JUMP JUMPDEST PUSH2 0x1B49 DUP2 PUSH2 0x1B36 JUMP JUMPDEST DUP2 EQ PUSH2 0x1B54 JUMPI PUSH1 0x0 DUP1 REVERT JUMPDEST POP JUMP JUMPDEST PUSH1 0x0 DUP2 CALLDATALOAD SWAP1 POP PUSH2 0x1B66 DUP2 PUSH2 0x1B40 JUMP JUMPDEST SWAP3 SWAP2 POP POP JUMP JUMPDEST PUSH1 0x0 PUSH1 0x20 DUP3 DUP5 SUB SLT ISZERO PUSH2 0x1B82 JUMPI PUSH2 0x1B81 PUSH2 0x1B2C JUMP JUMPDEST JUMPDEST PUSH1 0x0 PUSH2 0x1B90 DUP5 DUP3 DUP6 ADD PUSH2 0x1B57 JUMP JUMPDEST SWAP2 POP POP SWAP3 SWAP2 POP POP JUMP JUMPDEST PUSH1 0x0 DUP2 MLOAD SWAP1 POP SWAP2 SWAP1 POP JUMP JUMPDEST PUSH1 0x0 DUP3 DUP3 MSTORE PUSH1 0x20 DUP3 ADD SWAP1 POP SWAP3 SWAP2 POP POP JUMP JUMPDEST PUSH1 0x0 DUP2 SWAP1 POP PUSH1 0x20 DUP3 ADD SWAP1 POP SWAP2 SWAP1 POP JUMP JUMPDEST PUSH2 0x1BCE DUP2 PUSH2 0x1B36 JUMP JUMPDEST DUP3 MSTORE POP POP JUMP JUMPDEST PUSH1 0x0 PUSH2 0x1BE0 DUP4 DUP4 PUSH2 0x1BC5 JUMP JUMPDEST PUSH1 0x20 DUP4 ADD SWAP1 POP SWAP3 SWAP2 POP POP JUMP JUMPDEST PUSH1 0x0 PUSH1 0x20 DUP3 ADD SWAP1 POP SWAP2 SWAP1 POP JUMP JUMPDEST PUSH1 0x0 PUSH2 0x1C04 DUP3 PUSH2 0x1B99 JUMP JUMPDEST PUSH2 0x1C0E DUP2 DUP6 PUSH2 0x1BA4 JUMP JUMPDEST SWAP4 POP PUSH2 0x1C19 DUP4 PUSH2 0x1BB5 JUMP JUMPDEST DUP1 PUSH1 0x0 JUMPDEST DUP4 DUP2 LT ISZERO PUSH2 0x1C4A JUMPI DUP2 MLOAD PUSH2 0x1C31 DUP9 DUP3 PUSH2 0x1BD4 JUMP JUMPDEST SWAP8 POP PUSH2 0x1C3C DUP4 PUSH2 0x1BEC JUMP JUMPDEST SWAP3 POP POP PUSH1 0x1 DUP2 ADD SWAP1 POP PUSH2 0x1C1D JUMP JUMPDEST POP DUP6 SWAP4 POP POP POP POP SWAP3 SWAP2 POP POP JUMP JUMPDEST PUSH1 0x0 PUSH1 0x40 DUP3 ADD SWAP1 POP DUP2 DUP2 SUB PUSH1 0x0 DUP4 ADD MSTORE PUSH2 0x1C71 DUP2 DUP6 PUSH2 0x1BF9 JUMP JUMPDEST SWAP1 POP DUP2 DUP2 SUB PUSH1 0x20 DUP4 ADD MSTORE PUSH2 0x1C85 DUP2 DUP5 PUSH2 0x1BF9 JUMP JUMPDEST SWAP1 POP SWAP4 SWAP3 POP POP POP JUMP JUMPDEST PUSH1 0x0 DUP1 REVERT JUMPDEST PUSH1 0x0 DUP1 REVERT JUMPDEST PUSH1 0x0 PUSH1 0x1F NOT PUSH1 0x1F DUP4 ADD AND SWAP1 POP SWAP2 SWAP1 POP JUMP JUMPDEST PUSH32 0x4E487B7100000000000000000000000000000000000000000000000000000000 PUSH1 0x0 MSTORE PUSH1 0x41 PUSH1 0x4 MSTORE PUSH1 0x24 PUSH1 0x0 REVERT JUMPDEST PUSH2 0x1CE1 DUP3 PUSH2 0x1C98 JUMP JUMPDEST DUP2 ADD DUP2 DUP2 LT PUSH8 0xFFFFFFFFFFFFFFFF DUP3 GT OR ISZERO PUSH2 0x1D00 JUMPI PUSH2 0x1CFF PUSH2 0x1CA9 JUMP JUMPDEST JUMPDEST DUP1 PUSH1 0x40 MSTORE POP POP POP JUMP JUMPDEST PUSH1 0x0 PUSH2 0x1D13 PUSH2 0x1B22 JUMP JUMPDEST SWAP1 POP PUSH2 0x1D1F DUP3 DUP3 PUSH2 0x1CD8 JUMP JUMPDEST SWAP2 SWAP1 POP JUMP JUMPDEST PUSH1 0x0 PUSH8 0xFFFFFFFFFFFFFFFF DUP3 GT ISZERO PUSH2 0x1D3F JUMPI PUSH2 0x1D3E PUSH2 0x1CA9 JUMP JUMPDEST JUMPDEST PUSH2 0x1D48 DUP3 PUSH2 0x1C98 JUMP JUMPDEST SWAP1 POP PUSH1 0x20 DUP2 ADD SWAP1 POP SWAP2 SWAP1 POP JUMP JUMPDEST DUP3 DUP2 DUP4 CALLDATACOPY PUSH1 0x0 DUP4 DUP4 ADD MSTORE POP POP POP JUMP JUMPDEST PUSH1 0x0 PUSH2 0x1D77 PUSH2 0x1D72 DUP5 PUSH2 0x1D24 JUMP JUMPDEST PUSH2 0x1D09 JUMP JUMPDEST SWAP1 POP DUP3 DUP2 MSTORE PUSH1 0x20 DUP2 ADD DUP5 DUP5 DUP5 ADD GT ISZERO PUSH2 0x1D93 JUMPI PUSH2 0x1D92 PUSH2 0x1C93 JUMP JUMPDEST JUMPDEST PUSH2 0x1D9E DUP5 DUP3 DUP6 PUSH2 0x1D55 JUMP JUMPDEST POP SWAP4 SWAP3 POP POP POP JUMP JUMPDEST PUSH1 0x0 DUP3 PUSH1 0x1F DUP4 ADD SLT PUSH2 0x1DBB JUMPI PUSH2 0x1DBA PUSH2 0x1C8E JUMP JUMPDEST JUMPDEST DUP2 CALLDATALOAD PUSH2 0x1DCB DUP5 DUP3 PUSH1 0x20 DUP7 ADD PUSH2 0x1D64 JUMP JUMPDEST SWAP2 POP POP SWAP3 SWAP2 POP POP JUMP JUMPDEST PUSH1 0x0 PUSH1 0xFF DUP3 AND SWAP1 POP SWAP2 SWAP1 POP JUMP JUMPDEST PUSH2 0x1DEA DUP2 PUSH2 0x1DD4 JUMP JUMPDEST DUP2 EQ PUSH2 0x1DF5 JUMPI PUSH1 0x0 DUP1 REVERT JUMPDEST POP JUMP JUMPDEST PUSH1 0x0 DUP2 CALLDATALOAD SWAP1 POP PUSH2 0x1E07 DUP2 PUSH2 0x1DE1 JUMP JUMPDEST SWAP3 SWAP2 POP POP JUMP JUMPDEST PUSH1 0x0 DUP1 PUSH1 0x40 DUP4 DUP6 SUB SLT ISZERO PUSH2 0x1E24 JUMPI PUSH2 0x1E23 PUSH2 0x1B2C JUMP JUMPDEST JUMPDEST PUSH1 0x0 DUP4 ADD CALLDATALOAD PUSH8 0xFFFFFFFFFFFFFFFF DUP2 GT ISZERO PUSH2 0x1E42 JUMPI PUSH2 0x1E41 PUSH2 0x1B31 JUMP JUMPDEST JUMPDEST PUSH2 0x1E4E DUP6 DUP3 DUP7 ADD PUSH2 0x1DA6 JUMP JUMPDEST SWAP3 POP POP PUSH1 0x20 PUSH2 0x1E5F DUP6 DUP3 DUP7 ADD PUSH2 0x1DF8 JUMP JUMPDEST SWAP2 POP POP SWAP3 POP SWAP3 SWAP1 POP JUMP JUMPDEST PUSH1 0x0 DUP1 PUSH1 0x40 DUP4 DUP6 SUB SLT ISZERO PUSH2 0x1E80 JUMPI PUSH2 0x1E7F PUSH2 0x1B2C JUMP JUMPDEST JUMPDEST PUSH1 0x0 PUSH2 0x1E8E DUP6 DUP3 DUP7 ADD PUSH2 0x1B57 JUMP JUMPDEST SWAP3 POP POP PUSH1 0x20 PUSH2 0x1E9F DUP6 DUP3 DUP7 ADD PUSH2 0x1B57 JUMP JUMPDEST SWAP2 POP POP SWAP3 POP SWAP3 SWAP1 POP JUMP JUMPDEST PUSH1 0x0 PUSH20 0xFFFFFFFFFFFFFFFFFFFFFFFFFFFFFFFFFFFFFFFF DUP3 AND SWAP1 POP SWAP2 SWAP1 POP JUMP JUMPDEST PUSH1 0x0 PUSH2 0x1ED4 DUP3 PUSH2 0x1EA9 JUMP JUMPDEST SWAP1 POP SWAP2 SWAP1 POP JUMP JUMPDEST PUSH2 0x1EE4 DUP2 PUSH2 0x1EC9 JUMP JUMPDEST DUP2 EQ PUSH2 0x1EEF JUMPI PUSH1 0x0 DUP1 REVERT JUMPDEST POP JUMP JUMPDEST PUSH1 0x0 DUP2 CALLDATALOAD SWAP1 POP PUSH2 0x1F01 DUP2 PUSH2 0x1EDB JUMP JUMPDEST SWAP3 SWAP2 POP POP JUMP JUMPDEST PUSH1 0x0 DUP1 PUSH1 0x40 DUP4 DUP6 SUB SLT ISZERO PUSH2 0x1F1E JUMPI PUSH2 0x1F1D PUSH2 0x1B2C JUMP JUMPDEST JUMPDEST PUSH1 0x0 PUSH2 0x1F2C DUP6 DUP3 DUP7 ADD PUSH2 0x1B57 JUMP JUMPDEST SWAP3 POP POP PUSH1 0x20 PUSH2 0x1F3D DUP6 DUP3 DUP7 ADD PUSH2 0x1EF2 JUMP JUMPDEST SWAP2 POP POP SWAP3 POP SWAP3 SWAP1 POP JUMP JUMPDEST PUSH2 0x1F50 DUP2 PUSH2 0x1B36 JUMP JUMPDEST DUP3 MSTORE POP POP JUMP JUMPDEST PUSH1 0x0 PUSH1 0x20 DUP3 ADD SWAP1 POP PUSH2 0x1F6B PUSH1 0x0 DUP4 ADD DUP5 PUSH2 0x1F47 JUMP JUMPDEST SWAP3 SWAP2 POP POP JUMP JUMPDEST PUSH1 0x0 PUSH2 0x1F7C DUP3 PUSH2 0x1EA9 JUMP JUMPDEST SWAP1 POP SWAP2 SWAP1 POP JUMP JUMPDEST PUSH2 0x1F8C DUP2 PUSH2 0x1F71 JUMP JUMPDEST DUP3 MSTORE POP POP JUMP JUMPDEST PUSH1 0x0 DUP2 MLOAD SWAP1 POP SWAP2 SWAP1 POP JUMP JUMPDEST PUSH1 0x0 JUMPDEST DUP4 DUP2 LT ISZERO PUSH2 0x1FBB JUMPI DUP1 DUP3 ADD MLOAD DUP2 DUP5 ADD MSTORE PUSH1 0x20 DUP2 ADD SWAP1 POP PUSH2 0x1FA0 JUMP JUMPDEST PUSH1 0x0 DUP5 DUP5 ADD MSTORE POP POP POP POP JUMP JUMPDEST PUSH1 0x0 PUSH2 0x1FD2 DUP3 PUSH2 0x1F92 JUMP JUMPDEST PUSH2 0x1FDC DUP2 DUP6 PUSH2 0x1AA5 JUMP JUMPDEST SWAP4 POP PUSH2 0x1FEC DUP2 DUP6 PUSH1 0x20 DUP7 ADD PUSH2 0x1F9D JUMP JUMPDEST PUSH2 0x1FF5 DUP2 PUSH2 0x1C98 JUMP JUMPDEST DUP5 ADD SWAP2 POP POP SWAP3 SWAP2 POP POP JUMP JUMPDEST PUSH2 0x2009 DUP2 PUSH2 0x1DD4 JUMP JUMPDEST DUP3 MSTORE POP POP JUMP JUMPDEST PUSH1 0x0 DUP2 ISZERO ISZERO SWAP1 POP SWAP2 SWAP1 POP JUMP JUMPDEST PUSH2 0x2024 DUP2 PUSH2 0x200F JUMP JUMPDEST DUP3 MSTORE POP POP JUMP JUMPDEST PUSH1 0x0 PUSH1 0xE0 DUP3 ADD SWAP1 POP PUSH2 0x203F PUSH1 0x0 DUP4 ADD DUP11 PUSH2 0x1F83 JUMP JUMPDEST DUP2 DUP2 SUB PUSH1 0x20 DUP4 ADD MSTORE PUSH2 0x2051 DUP2 DUP10 PUSH2 0x1FC7 JUMP JUMPDEST SWAP1 POP PUSH2 0x2060 PUSH1 0x40 DUP4 ADD DUP9 PUSH2 0x2000 JUMP JUMPDEST PUSH2 0x206D PUSH1 0x60 DUP4 ADD DUP8 PUSH2 0x1F47 JUMP JUMPDEST PUSH2 0x207A PUSH1 0x80 DUP4 ADD DUP7 PUSH2 0x1F47 JUMP JUMPDEST PUSH2 0x2087 PUSH1 0xA0 DUP4 ADD DUP6 PUSH2 0x201B JUMP JUMPDEST PUSH2 0x2094 PUSH1 0xC0 DUP4 ADD DUP5 PUSH2 0x201B JUMP JUMPDEST SWAP9 SWAP8 POP POP POP POP POP POP POP POP JUMP JUMPDEST PUSH2 0x20A9 DUP2 PUSH2 0x1EC9 JUMP JUMPDEST DUP3 MSTORE POP POP JUMP JUMPDEST PUSH1 0x0 PUSH1 0x20 DUP3 ADD SWAP1 POP PUSH2 0x20C4 PUSH1 0x0 DUP4 ADD DUP5 PUSH2 0x20A0 JUMP JUMPDEST SWAP3 SWAP2 POP POP JUMP JUMPDEST PUSH2 0x20D3 DUP2 PUSH2 0x1F71 JUMP JUMPDEST DUP2 EQ PUSH2 0x20DE JUMPI PUSH1 0x0 DUP1 REVERT JUMPDEST POP JUMP JUMPDEST PUSH1 0x0 DUP2 CALLDATALOAD SWAP1 POP PUSH2 0x20F0 DUP2 PUSH2 0x20CA JUMP JUMPDEST SWAP3 SWAP2 POP POP JUMP JUMPDEST PUSH1 0x0 DUP1 PUSH1 0x0 PUSH1 0x60 DUP5 DUP7 SUB SLT ISZERO PUSH2 0x210F JUMPI PUSH2 0x210E PUSH2 0x1B2C JUMP JUMPDEST JUMPDEST PUSH1 0x0 PUSH2 0x211D DUP7 DUP3 DUP8 ADD PUSH2 0x1B57 JUMP JUMPDEST SWAP4 POP POP PUSH1 0x20 PUSH2 0x212E DUP7 DUP3 DUP8 ADD PUSH2 0x20E1 JUMP JUMPDEST SWAP3 POP POP PUSH1 0x40 PUSH2 0x213F DUP7 DUP3 DUP8 ADD PUSH2 0x1B57 JUMP JUMPDEST SWAP2 POP POP SWAP3 POP SWAP3 POP SWAP3 JUMP JUMPDEST PUSH32 0x4E6F74206F776E65720000000000000000000000000000000000000000000000 PUSH1 0x0 DUP3 ADD MSTORE POP JUMP JUMPDEST PUSH1 0x0 PUSH2 0x217F PUSH1 0x9 DUP4 PUSH2 0x1AA5 JUMP JUMPDEST SWAP2 POP PUSH2 0x218A DUP3 PUSH2 0x2149 JUMP JUMPDEST PUSH1 0x20 DUP3 ADD SWAP1 POP SWAP2 SWAP1 POP JUMP JUMPDEST PUSH1 0x0 PUSH1 0x20 DUP3 ADD SWAP1 POP DUP2 DUP2 SUB PUSH1 0x0 DUP4 ADD MSTORE PUSH2 0x21AE DUP2 PUSH2 0x2172 JUMP JUMPDEST SWAP1 POP SWAP2 SWAP1 POP JUMP JUMPDEST PUSH32 0x42656C6F772063757272656E7420636F756E7400000000000000000000000000 PUSH1 0x0 DUP3 ADD MSTORE POP JUMP JUMPDEST PUSH1 0x0 PUSH2 0x21EB PUSH1 0x13 DUP4 PUSH2 0x1AA5 JUMP JUMPDEST SWAP2 POP PUSH2 0x21F6 DUP3 PUSH2 0x21B5 JUMP JUMPDEST PUSH1 0x20 DUP3 ADD SWAP1 POP SWAP2 SWAP1 POP JUMP JUMPDEST PUSH1 0x0 PUSH1 0x20 DUP3 ADD SWAP1 POP DUP2 DUP2 SUB PUSH1 0x0 DUP4 ADD MSTORE PUSH2 0x221A DUP2 PUSH2 0x21DE JUMP JUMPDEST SWAP1 POP SWAP2 SWAP1 POP JUMP JUMPDEST PUSH32 0x4E487B7100000000000000000000000000000000000000000000000000000000 PUSH1 0x0 MSTORE PUSH1 0x11 PUSH1 0x4 MSTORE PUSH1 0x24 PUSH1 0x0 REVERT JUMPDEST PUSH1 0x0 PUSH2 0x225B DUP3 PUSH2 0x1B36 JUMP JUMPDEST SWAP2 POP PUSH2 0x2266 DUP4 PUSH2 0x1B36 JUMP JUMPDEST SWAP3 POP DUP3 DUP3 ADD SWAP1 POP DUP1 DUP3 GT ISZERO PUSH2 0x227E JUMPI PUSH2 0x227D PUSH2 0x2221 JUMP JUMPDEST JUMPDEST SWAP3 SWAP2 POP POP JUMP JUMPDEST PUSH32 0x4E487B7100000000000000000000000000000000000000000000000000000000 PUSH1 0x0 MSTORE PUSH1 0x32 PUSH1 0x4 MSTORE PUSH1 0x24 PUSH1 0x0 REVERT JUMPDEST PUSH1 0x0 PUSH2 0x22BE DUP3 PUSH2 0x1B36 JUMP JUMPDEST SWAP2 POP PUSH32 0xFFFFFFFFFFFFFFFFFFFFFFFFFFFFFFFFFFFFFFFFFFFFFFFFFFFFFFFFFFFFFFFF DUP3 SUB PUSH2 0x22F0 JUMPI PUSH2 0x22EF PUSH2 0x2221 JUMP JUMPDEST JUMPDEST PUSH1 0x1 DUP3 ADD SWAP1 POP SWAP2 SWAP1 POP JUMP JUMPDEST PUSH32 0x496E76616C6964206475726174696F6E00000000000000000000000000000000 PUSH1 0x0 DUP3 ADD MSTORE POP JUMP JUMPDEST PUSH1 0x0 PUSH2 0x2331 PUSH1 0x10 DUP4 PUSH2 0x1AA5 JUMP JUMPDEST SWAP2 POP PUSH2 0x233C DUP3 PUSH2 0x22FB JUMP JUMPDEST PUSH1 0x20 DUP3 ADD SWAP1 POP SWAP2 SWAP1 POP JUMP JUMPDEST PUSH1 0x0 PUSH1 0x20 DUP3 ADD SWAP1 POP DUP2 DUP2 SUB PUSH1 0x0 DUP4 ADD MSTORE PUSH2 0x2360 DUP2 PUSH2 0x2324 JUMP JUMPDEST SWAP1 POP SWAP2 SWAP1 POP JUMP JUMPDEST PUSH32 0x4D6178207374616C6C7320726561636865640000000000000000000000000000 PUSH1 0x0 DUP3 ADD MSTORE POP JUMP JUMPDEST PUSH1 0x0 PUSH2 0x239D PUSH1 0x12 DUP4 PUSH2 0x1AA5 JUMP JUMPDEST SWAP2 POP PUSH2 0x23A8 DUP3 PUSH2 0x2367 JUMP JUMPDEST PUSH1 0x20 DUP3 ADD SWAP1 POP SWAP2 SWAP1 POP JUMP JUMPDEST PUSH1 0x0 PUSH1 0x20 DUP3 ADD SWAP1 POP DUP2 DUP2 SUB PUSH1 0x0 DUP4 ADD MSTORE PUSH2 0x23CC DUP2 PUSH2 0x2390 JUMP JUMPDEST SWAP1 POP SWAP2 SWAP1 POP JUMP JUMPDEST PUSH32 0x4E487B7100000000000000000000000000000000000000000000000000000000 PUSH1 0x0 MSTORE PUSH1 0x22 PUSH1 0x4 MSTORE PUSH1 0x24 PUSH1 0x0 REVERT JUMPDEST PUSH1 0x0 PUSH1 0x2 DUP3 DIV SWAP1 POP PUSH1 0x1 DUP3 AND DUP1 PUSH2 0x241A JUMPI PUSH1 0x7F DUP3 AND SWAP2 POP JUMPDEST PUSH1 0x20 DUP3 LT DUP2 SUB PUSH2 0x242D JUMPI PUSH2 0x242C PUSH2 0x23D3 JUMP JUMPDEST JUMPDEST POP SWAP2 SWAP1 POP JUMP JUMPDEST PUSH1 0x0 DUP2 SWAP1 POP DUP2 PUSH1 0x0 MSTORE PUSH1 0x20 PUSH1 0x0 KECCAK256 SWAP1 POP SWAP2 SWAP1 POP JUMP JUMPDEST PUSH1 0x0 PUSH1 0x20 PUSH1 0x1F DUP4 ADD DIV SWAP1 POP SWAP2 SWAP1 POP JUMP JUMPDEST PUSH1 0x0 DUP3 DUP3 SHL SWAP1 POP SWAP3 SWAP2 POP POP JUMP JUMPDEST PUSH1 0x0 PUSH1 0x8 DUP4 MUL PUSH2 0x2495 PUSH32 0xFFFFFFFFFFFFFFFFFFFFFFFFFFFFFFFFFFFFFFFFFFFFFFFFFFFFFFFFFFFFFFFF DUP3 PUSH2 0x2458 JUMP JUMPDEST PUSH2 0x249F DUP7 DUP4 PUSH2 0x2458 JUMP JUMPDEST SWAP6 POP DUP1 NOT DUP5 AND SWAP4 POP DUP1 DUP7 AND DUP5 OR SWAP3 POP POP POP SWAP4 SWAP3 POP POP POP JUMP JUMPDEST PUSH1 0x0 DUP2 SWAP1 POP SWAP2 SWAP1 POP JUMP JUMPDEST PUSH1 0x0 PUSH2 0x24DC PUSH2 0x24D7 PUSH2 0x24D2 DUP5 PUSH2 0x1B36 JUMP JUMPDEST PUSH2 0x24B7 JUMP JUMPDEST PUSH2 0x1B36 JUMP JUMPDEST SWAP1 POP SWAP2 SWAP1 POP JUMP JUMPDEST PUSH1 0x0 DUP2 SWAP1 POP SWAP2 SWAP1 POP JUMP JUMPDEST PUSH2 0x24F6 DUP4 PUSH2 0x24C1 JUMP JUMPDEST PUSH2 0x250A PUSH2 0x2502 DUP3 PUSH2 0x24E3 JUMP JUMPDEST DUP5 DUP5 SLOAD PUSH2 0x2465 JUMP JUMPDEST DUP3 SSTORE POP POP POP POP JUMP JUMPDEST PUSH1 0x0 SWAP1 JUMP JUMPDEST PUSH2 0x251F PUSH2 0x2512 JUMP JUMPDEST PUSH2 0x252A DUP2 DUP5 DUP5 PUSH2 0x24ED JUMP JUMPDEST POP POP POP JUMP JUMPDEST JUMPDEST DUP2 DUP2 LT ISZERO PUSH2 0x254E JUMPI PUSH2 0x2543 PUSH1 0x0 DUP3 PUSH2 0x2517 JUMP JUMPDEST PUSH1 0x1 DUP2 ADD SWAP1 POP PUSH2 0x2530 JUMP JUMPDEST POP POP JUMP JUMPDEST PUSH1 0x1F DUP3 GT ISZERO PUSH2 0x2593 JUMPI PUSH2 0x2564 DUP2 PUSH2 0x2433 JUMP JUMPDEST PUSH2 0x256D DUP5 PUSH2 0x2448 JUMP JUMPDEST DUP2 ADD PUSH1 0x20 DUP6 LT ISZERO PUSH2 0x257C JUMPI DUP2 SWAP1 POP JUMPDEST PUSH2 0x2590 PUSH2 0x2588 DUP6 PUSH2 0x2448 JUMP JUMPDEST DUP4 ADD DUP3 PUSH2 0x252F JUMP JUMPDEST POP POP JUMPDEST POP POP POP JUMP JUMPDEST PUSH1 0x0 DUP3 DUP3 SHR SWAP1 POP SWAP3 SWAP2 POP POP JUMP JUMPDEST PUSH1 0x0 PUSH2 0x25B6 PUSH1 0x0 NOT DUP5 PUSH1 0x8 MUL PUSH2 0x2598 JUMP JUMPDEST NOT DUP1 DUP4 AND SWAP2 POP POP SWAP3 SWAP2 POP POP JUMP JUMPDEST PUSH1 0x0 PUSH2 0x25CF DUP4 DUP4 PUSH2 0x25A5 JUMP JUMPDEST SWAP2 POP DUP3 PUSH1 0x2 MUL DUP3 OR SWAP1 POP SWAP3 SWAP2 POP POP JUMP JUMPDEST PUSH2 0x25E8 DUP3 PUSH2 0x1F92 JUMP JUMPDEST PUSH8 0xFFFFFFFFFFFFFFFF DUP2 GT ISZERO PUSH2 0x2601 JUMPI PUSH2 0x2600 PUSH2 0x1CA9 JUMP JUMPDEST JUMPDEST PUSH2 0x260B DUP3 SLOAD PUSH2 0x2402 JUMP JUMPDEST PUSH2 0x2616 DUP3 DUP3 DUP6 PUSH2 0x2552 JUMP JUMPDEST PUSH1 0x0 PUSH1 0x20 SWAP1 POP PUSH1 0x1F DUP4 GT PUSH1 0x1 DUP2 EQ PUSH2 0x2649 JUMPI PUSH1 0x0 DUP5 ISZERO PUSH2 0x2637 JUMPI DUP3 DUP8 ADD MLOAD SWAP1 POP JUMPDEST PUSH2 0x2641 DUP6 DUP3 PUSH2 0x25C3 JUMP JUMPDEST DUP7 SSTORE POP PUSH2 0x26A9 JUMP JUMPDEST PUSH1 0x1F NOT DUP5 AND PUSH2 0x2657 DUP7 PUSH2 0x2433 JUMP JUMPDEST PUSH1 0x0 JUMPDEST DUP3 DUP2 LT ISZERO PUSH2 0x267F JUMPI DUP5 DUP10 ADD MLOAD DUP3 SSTORE PUSH1 0x1 DUP3 ADD SWAP2 POP PUSH1 0x20 DUP6 ADD SWAP5 POP PUSH1 0x20 DUP2 ADD SWAP1 POP PUSH2 0x265A JUMP JUMPDEST DUP7 DUP4 LT ISZERO PUSH2 0x269C JUMPI DUP5 DUP10 ADD MLOAD PUSH2 0x2698 PUSH1 0x1F DUP10 AND DUP3 PUSH2 0x25A5 JUMP JUMPDEST DUP4 SSTORE POP JUMPDEST PUSH1 0x1 PUSH1 0x2 DUP9 MUL ADD DUP9 SSTORE POP POP POP JUMPDEST POP POP POP POP POP POP JUMP JUMPDEST PUSH1 0x0 PUSH1 0x40 DUP3 ADD SWAP1 POP DUP2 DUP2 SUB PUSH1 0x0 DUP4 ADD MSTORE PUSH2 0x26CB DUP2 DUP6 PUSH2 0x1FC7 JUMP JUMPDEST SWAP1 POP PUSH2 0x26DA PUSH1 0x20 DUP4 ADD DUP5 PUSH2 0x2000 JUMP JUMPDEST SWAP4 SWAP3 POP POP POP JUMP JUMPDEST PUSH32 0x4E6F74207374616C6C206F776E65720000000000000000000000000000000000 PUSH1 0x0 DUP3 ADD MSTORE POP JUMP JUMPDEST PUSH1 0x0 PUSH2 0x2717 PUSH1 0xF DUP4 PUSH2 0x1AA5 JUMP JUMPDEST SWAP2 POP PUSH2 0x2722 DUP3 PUSH2 0x26E1 JUMP JUMPDEST PUSH1 0x20 DUP3 ADD SWAP1 POP SWAP2 SWAP1 POP JUMP JUMPDEST PUSH1 0x0 PUSH1 0x20 DUP3 ADD SWAP1 POP DUP2 DUP2 SUB PUSH1 0x0 DUP4 ADD MSTORE PUSH2 0x2746 DUP2 PUSH2 0x270A JUMP JUMPDEST SWAP1 POP SWAP2 SWAP1 POP JUMP JUMPDEST PUSH32 0x46756E647320616C72656164792077697468647261776E000000000000000000 PUSH1 0x0 DUP3 ADD MSTORE POP JUMP JUMPDEST PUSH1 0x0 PUSH2 0x2783 PUSH1 0x17 DUP4 PUSH2 0x1AA5 JUMP JUMPDEST SWAP2 POP PUSH2 0x278E DUP3 PUSH2 0x274D JUMP JUMPDEST PUSH1 0x20 DUP3 ADD SWAP1 POP SWAP2 SWAP1 POP JUMP JUMPDEST PUSH1 0x0 PUSH1 0x20 DUP3 ADD SWAP1 POP DUP2 DUP2 SUB PUSH1 0x0 DUP4 ADD MSTORE PUSH2 0x27B2 DUP2 PUSH2 0x2776 JUMP JUMPDEST SWAP1 POP SWAP2 SWAP1 POP JUMP JUMPDEST PUSH32 0x5374616C6C207374696C6C206163746976650000000000000000000000000000 PUSH1 0x0 DUP3 ADD MSTORE POP JUMP JUMPDEST PUSH1 0x0 PUSH2 0x27EF PUSH1 0x12 DUP4 PUSH2 0x1AA5 JUMP JUMPDEST SWAP2 POP PUSH2 0x27FA DUP3 PUSH2 0x27B9 JUMP JUMPDEST PUSH1 0x20 DUP3 ADD SWAP1 POP SWAP2 SWAP1 POP JUMP JUMPDEST PUSH1 0x0 PUSH1 0x20 DUP3 ADD SWAP1 POP DUP2 DUP2 SUB PUSH1 0x0 DUP4 ADD MSTORE PUSH2 0x281E DUP2 PUSH2 0x27E2 JUMP JUMPDEST SWAP1 POP SWAP2 SWAP1 POP JUMP JUMPDEST PUSH32 0x5374616C6C206E6F742072656769737465726564000000000000000000000000 PUSH1 0x0 DUP3 ADD MSTORE POP JUMP JUMPDEST PUSH1 0x0 PUSH2 0x285B PUSH1 0x14 DUP4 PUSH2 0x1AA5 JUMP JUMPDEST SWAP2 POP PUSH2 0x2866 DUP3 PUSH2 0x2825 JUMP JUMPDEST PUSH1 0x20 DUP3 ADD SWAP1 POP SWAP2 SWAP1 POP JUMP JUMPDEST PUSH1 0x0 PUSH1 0x20 DUP3 ADD SWAP1 POP DUP2 DUP2 SUB PUSH1 0x0 DUP4 ADD MSTORE PUSH2 0x288A DUP2 PUSH2 0x284E JUMP JUMPDEST SWAP1 POP SWAP2 SWAP1 POP JUMP JUMPDEST PUSH32 0x4D7573742073656E642045544800000000000000000000000000000000000000 PUSH1 0x0 DUP3 ADD MSTORE POP JUMP JUMPDEST PUSH1 0x0 PUSH2 0x28C7 PUSH1 0xD DUP4 PUSH2 0x1AA5 JUMP JUMPDEST SWAP2 POP PUSH2 0x28D2 DUP3 PUSH2 0x2891 JUMP JUMPDEST PUSH1 0x20 DUP3 ADD SWAP1 POP SWAP2 SWAP1 POP JUMP JUMPDEST PUSH1 0x0 PUSH1 0x20 DUP3 ADD SWAP1 POP DUP2 DUP2 SUB PUSH1 0x0 DUP4 ADD MSTORE PUSH2 0x28F6 DUP2 PUSH2 0x28BA JUMP JUMPDEST SWAP1 POP SWAP2 SWAP1 POP JUMP JUMPDEST PUSH32 0x526566756E642065786365656473207061796D656E7400000000000000000000 PUSH1 0x0 DUP3 ADD MSTORE POP JUMP JUMPDEST PUSH1 0x0 PUSH2 0x2933 PUSH1 0x16 DUP4 PUSH2 0x1AA5 JUMP JUMPDEST SWAP2 POP PUSH2 0x293E DUP3 PUSH2 0x28FD JUMP JUMPDEST PUSH1 0x20 DUP3 ADD SWAP1 POP SWAP2 SWAP1 POP JUMP JUMPDEST PUSH1 0x0 PUSH1 0x20 DUP3 ADD SWAP1 POP DUP2 DUP2 SUB PUSH1 0x0 DUP4 ADD MSTORE PUSH2 0x2962 DUP2 PUSH2 0x2926 JUMP JUMPDEST SWAP1 POP SWAP2 SWAP1 POP JUMP JUMPDEST PUSH1 0x0 PUSH2 0x2974 DUP3 PUSH2 0x1B36 JUMP JUMPDEST SWAP2 POP PUSH2 0x297F DUP4 PUSH2 0x1B36 JUMP JUMPDEST SWAP3 POP DUP3 DUP3 SUB SWAP1 POP DUP2 DUP2 GT ISZERO PUSH2 0x2997 JUMPI PUSH2 0x2996 PUSH2 0x2221 JUMP JUMPDEST JUMPDEST SWAP3 SWAP2 POP POP JUMP INVALID LOG2 PUSH5 0x6970667358 0x22 SLT KECCAK256 0xD6 MOD 0x2B PUSH6 0xB15C2280837B 0xD3 0xD2 CALLDATACOPY SWAP2 SGT SWAP11 SWAP2 REVERT PUSH28 0x52314D5D5914FDD4771EB792D364736F6C6343000817003300000000 "},"methodIdentifiers":{"getTopStalls(uint256)":"15d9972d","maxStalls()":"ee12f47f","owner()":"8da5cb5b","payToStall(uint256)":"5f593a61","payments(uint256,address)":"565834ee","refundUser(uint256,address,uint256)":"f79f27b7","registerStall(string,uint8)":"43b80d39","setMaxStalls(uint256)":"10c427ae","stallCount()":"99cb043a","stalls(uint256)":"6d0f9408","withdraw(uint256,uint256)":"441a3e70"}}}}}